:020000040800F2
:100000006818002065020008D9250008B91E0008FC
:1000100009240008EF030008513000080000000028
:10002000000000000000000000000000CD010008FA
:1000300033040008000000001102000889290008AC
:100040007F0200087F0200087F0200087F0200088C
:100050007F0200087F0200087F0200087F0200087C
:100060007F0200087F0200087F0200087F0200086C
:10007000F1030008FD0300087F0200087F0200086A
:100080007F0200087F0200087F0200087F0200084C
:100090007F0200087F0200087F0200087F0200083C
:1000A0007F0200087F0200087F0200087F0200082C
:1000B0007F0200087F0200087F0200087F0200081C
:1000C0007F0200087F0200087F0200087F0200080C
:1000D0007F0200087F0200087F0200084530000808
:1000E0007F0200087F0200087F0200087F020008EC
:1000F0007F0200087F0200087F0200087F020008DC
:100100007F0200087F0200087F0200087F020008CB
:100110007F0200087F020008152A0008212A000833
:100120007F0200087F0200087F0200087F020008AB
:1001300000F002F800F03AF80AA090E8000C8244BF
:100140008344AAF10107DA4501D100F02FF8AFF29C
:10015000090EBAE80F0013F0010F18BFFB1A43F0A5
:1001600001031847D8620000F8620000103A24BF6B
:1001700078C878C1FAD8520724BF30C830C144BF0C
:1001800004680C607047000000230024002500264E
:10019000103A28BF78C1FBD8520728BF30C148BFEA
:1001A0000B6070471FB51FBD10B510BD00F0EAF819
:1001B0001146FFF7F7FF03F003FB00F008F903B463
:1001C000FFF7F2FF03BC00F00BF90000224B1968A7
:1001D0000868B0E8F00F80F30988BFF36F8F4FF025
:1001E000000080F311884EF00D0E704700000000F3
:1001F00006480068006880F3088862B661B6BFF3FD
:100200004F8FBFF36F8F00DF00BF00BF08ED00E02E
:10021000EFF30980BFF36F8F0F4B1A6820E9F00FDF
:10022000106008B54FF0500080F31188BFF34F8F76
:10023000BFF36F8F04F0AAFC4FF0000080F3118829
:10024000BDE8084019680868B0E8F00F80F3098835
:10025000BFF36F8F704700BF1C000020EFF30580D5
:10026000704700000948804709480047FEE7FEE75D
:10027000FEE7FEE7FEE7FEE7FEE7FEE7FEE7FEE756
:1002800004480549054A064B70470000132A000838
:10029000310100086812002068180020681400204E
:1002A0006814002010B5203AC0F00B80B1E8185057
:1002B000203AA0E81850B1E81850A0E81850BFF450
:1002C000F5AF5FEA027C24BFB1E81850A0E81850EF
:1002D00044BF18C918C0BDE810405FEA827C24BF43
:1002E00051F8043B40F8043B08BF7047D20728BFD1
:1002F00031F8023B48BF11F8012B28BF20F8023B20
:1003000048BF00F8012B70474FF0000200B51346BC
:1003100094469646203922BFA0E80C50A0E80C5025
:10032000B1F12001BFF4F7AF090728BFA0E80C50D6
:1003300048BF0CC05DF804EB890028BF40F8042BCF
:1003400008BF704748BF20F8022B11F0804F18BF3C
:1003500000F8012B704770477047704710B500F0E8
:1003600009F8006810BD10B5044600F003F80460F9
:1003700010BD00000048704704120020004870477C
:10038000041200207546FFF7F9FFAE4605006946E6
:10039000534620F00700854618B020B5FFF770FFE0
:1003A000BDE820404FF000064FF000074FF0000876
:1003B0004FF0000B21F00701AC46ACE8C009ACE8F7
:1003C000C009ACE8C009ACE8C0098D46704710B55B
:1003D0000446AFF300802046BDE81040FFF7EFBEB3
:1003E00001491820ABBEFEE7260002007047FEE779
:1003F000014800F0DDB8000068040020014800F06A
:10040000D7B800002404002030B590F840500124F3
:10041000AC40C56B6C60046863604368102B036874
:1004200003D099600068C26030BD9A600068C16006
:1004300030BD704772B6FEE710B590F8211000226B
:10044000022905D00421816380F82020012010BDFD
:1004500001680B6823F00E030B6001680B6823F042
:1004600001030B6090F84030C46B012101FA03F3E3
:10047000636080F8211080F82020104610BD000035
:100480002DE9F05F90F821100024022903D0042107
:100490008163012485E001680A6822F00E020A6087
:1004A00001680A6822F001020A603F4E3E4FB21511
:1004B000DFF8F4C0DFF8F090DFF8ECA0DFF8E8B088
:1004C000DFF8E4E00168783F13011502ACF1640C39
:1004D000A9F15009AAF13C0AABF1280BAEF1140EB8
:1004E0004FF48018B14227D9B9420ED0614512D0DD
:1004F00049451DD0514518D0594518D0714501D1F5
:10050000424615E0294EB14201D1012210E0274EAA
:100510001436B14201D110220AE0244E2836B142ED
:1005200006D0224A3C32914201D11A4600E02A46C6
:100530001E49091F0A602BE0B94213D0614517D04C
:10054000494522D051451DD059451DD0714501D195
:1005500042461AE0B14202D14FF0807215E0134ECC
:10056000B14201D1012210E0104E1436B14201D146
:1005700010220AE00D4E2836B14206D00B4A3C321A
:10058000914201D11A4600E02A46074980394A6063
:10059000012180F82110002180F82010416B01B169
:1005A00088472046BDE8F09F8000024008040240D2
:1005B0002DE9F05FC16B0A6801680B68046C4FF0AD
:1005C000040808FA04F8844D844E854FDFF814C2FD
:1005D000DFF81492DFF814A2DFF814B2DFF814E2A7
:1005E00018EA020F65D05FEA437862D50A6892067E
:1005F00003D40A6822F004020A60DFF8F0814FF4A5
:100600008062016808F1140813011402414524D9DD
:10061000A9420DD0B1420FD0B9421AD0614515D0D0
:10062000494515D0514501D1120312E0594501D178
:1006300004220EE0714501D140220AE06D4D1435CF
:10064000A94206D06B4A2832914201D11A4600E0F5
:1006500022466749091F0A6029E0A94213D0B14226
:1006600015D0B94220D061451BD049451BD051451A
:1006700002D14FF4800217E0414502D14FF0806271
:1006800012E0594501D104220EE0714501D140220A
:100690000AE0584D1435A94206D0564A28329142F4
:1006A00001D11A4600E022464B4908394A60C16A26
:1006B00071E04FF0020808FA04F818EA020F70D04F
:1006C0005FEA83786DD50A68920606D40A6822F03C
:1006D0000A020A60012180F82110DFF810814FF42E
:1006E0000072016808F1140813011402414524D96D
:1006F000A9420DD0B1420FD0B9421AD0614515D0F0
:10070000494515D0514501D1120312E0594501D197
:1007100002220EE0714501D120220AE0354D143548
:10072000A94206D0334A2832914201D11A4600E04C
:1007300022462F49091F0A6029E0A94213D0B1427D
:1007400015D0B94220D061451BD049451BD0514539
:1007500002D14FF4001217E0414502D14FF0007270
:1007600012E0594501D102220EE0714501D120224B
:100770000AE0204D1435A94206D01E4A2832914283
:1007800001D11A4600E02246134908394A60002187
:1007900080F82010816A00291CD0BDE8F05F08476E
:1007A000FFE70825A540154214D01A0712D50A689C
:1007B00022F00E020A6090F84020C36B012101FA7A
:1007C00002F25A60816380F82110002180F8201025
:1007D000016BE0E7BDE8F09F080002401C0002400A
:1007E0003000024044000240580002406C000240C9
:1007F000080402401C04024030B560B11A4B026884
:1008000014219A4209D2194B1344B3FBF1F1890028
:10081000016417490AE0012030BD134B5B421344C9
:10082000B3FBF1F1890001640F490839C16302216A
:1008300080F82110136843F6F0718B43F0E901143E
:100840002143D0E902452C432143046921434469F3
:10085000214384692143194311600021416301222E
:1008600042770177084630BD08040240F8FFFDBF1B
:100870000000024070B5044690F8200000250128D1
:100880000CD0012084F8200094F821600020012E73
:1008900006D084F820000225284670BD022070BDD5
:1008A000022684F82160A0632068066826F001060D
:1008B00006602046FFF7A8FDE06A0028206801686E
:1008C00002D041F00E0106E021F004010160206831
:1008D000016841F00A0101602068016841F00101EE
:1008E0000160D9E770B5044600F010F90546601CB8
:1008F00002D004480078044400F008F9401BA042EC
:10090000FAD370BD0C0000202DE9F84FDFF8C89134
:100910000024A9F1040B23460F2709F1040AABF1C7
:10092000040ED1E00125A54006EA0502AA4276D1CF
:10093000DFF8A8C14E68A6EB0C0866452BD00DDC8D
:10094000032E34D005DC36B3012E19D0022E2FD160
:100950001BE0112E16D0122E2AD119E0B8F5881FEF
:1009600019D006DCB8F5803F15D0B8F5801F1FD12F
:1009700011E0B8F5001F0ED0B8F5041F18D10AE039
:10098000CB6815E0CB681B1D12E0CB6808330FE085
:10099000CB680C330CE08B682BB1012B4FF00803B4
:1009A00003D0456104E0042302E0056100E0002378
:1009B000FF2A01D8064601E000F104064FEA84054B
:1009C00001D9A5F12005D6F8008007FA05FC28EA30
:1009D0000C0803FA05F548EA0508C6F800804D68DA
:1009E000ED0070D53E4DAE6946F00106AE61AD69D1
:1009F00024F0030605F0010500953A4D06EB050CC1
:100A0000DCF80850A607360F07FA06F825EA0805AD
:100A1000DFF8D480404503D14FF0000825E052E0D4
:100A2000DFF8C880404502D14FF001081DE0DFF833
:100A3000C080404502D14FF0020816E0DFF8B480D4
:100A4000404502D14FF003080FE0DFF8AC8040458D
:100A500002D14FF0040808E0DFF8A080404502D141
:100A60004FF0050801E04FF0060808FA06F848EADA
:100A70000508CCF808804D68D9F80060ED024D46B5
:100A800001D5164300E096432E604D68DAF8006009
:100A9000AD02554601D5164300E096432E604D68E1
:100AA000DBF80060AD035D4601D5164300E09643D8
:100AB0002E604D68DEF80060ED03754601D51643E3
:100AC00000E096432E60641C0A681646E2407FF4FC
:100AD00029AFBDE8F88F00000804014000001110A4
:100AE000001002400000014000080140000C0140DD
:100AF000001001400014014000180140001C01409A
:100B00000AB1016170470904FBE7000001488068F1
:100B1000704700000C0000200248816802781144F0
:100B2000816070470C000020074810B5016841F053
:100B300010010160032000F0A7F80F2000F006F874
:100B400000F050F8002010BD0020024030B50546EE
:100B50001F4887B0C16941F02001C161C06906A981
:100B600000F02000009001A800F036F90498B0B120
:100B700000F052F940001749174AB0FBF1F117484D
:100B8000491E0260416040F2E7320021C0E90321C2
:100B90008160816100F080FB040003D015E000F06B
:100BA0003BF9E8E70D4800F0CFFB04000DD13720FA
:100BB00000F03CF8102D07D200222946372000F023
:100BC00043F80748056000E0012407B0204630BD27
:100BD0000010024040420F0000140040AC0400200E
:100BE000100000200F4808B5816941F001018161C2
:100BF000816901F001010091C16941F08051C16139
:100C0000C069002200F0805000900F21901E00F07B
:100C10001BF80548416821F0E06141F00071416036
:100C200008BD00000010024000000140002809DB60
:100C300000F01F02012191404009800000F1E020F6
:100C4000C0F8001170470000F0B40E4B1B680C4652
:100C5000C3F30223C3F10705042D00D90425191D90
:100C6000072901D2002300E0DB1E012606FA05F168
:100C7000491E214099409E40761E16403143F0BCEB
:100C800002F0FBB90CED00E0064900F0070208682D
:100C90004FF6FF03184040EA0220034A1043086061
:100CA000704700000CED00E00000FA052DE9F04768
:100CB0000F46050061D0434E306800F00700B8428F
:100CC00009D2306820F0070038433060306800F007
:100CD0000700B84251D128683B4C810712D5400724
:100CE00003D5606840F4E06060602878000703D5B1
:100CF000606840F4605060606068A96820F0F000AF
:100D0000084360602878C00728D06868012810D0A0
:100D10002168022810D0890700292EDA616821F0A5
:100D2000030101436160FFF7F1FE804641F288391B
:100D30000DE021688903EFE78901EDE7FFF7E6FEA3
:100D4000A0EB0801494502D90320BDE8F08760689F
:100D5000696800F00C00B0EB810FEFD1306800F053
:100D60000700B8420BD9306820F0070038433060E4
:100D7000306800F00700B84201D00120E5E728788C
:100D8000400705D56068E96820F4E06008436060CA
:100D90002878000706D56068296920F4605040EA89
:100DA000C100606000F058F86168084AC1F303119F
:100DB000515CC8400649086006480068FFF7C6FE57
:100DC0000020C2E700200240001002404A620008F2
:100DD00018000020100000200F2202600C4A536807
:100DE00003F003034360536803F0F0038360536828
:100DF00003F4E063C36052684FF4E06303EAD20295
:100E000002610448006800F00700086070470000B5
:100E1000001002400020024004480549006849686B
:100E2000044AC1F30221515CC840704718000020F9
:100E3000001002405A6200080448054900684968E9
:100E4000044AC1F3C221515CC84070471800002019
:100E5000001002405A6200080E4A51680E4801F024
:100E60000C03042B11D0082B0FD10C48C1F3834382
:100E7000C903C05C0AD55168084AC1F34041921EBB
:100E8000515C054A5043B0FBF1F0704704494843B8
:100E9000704700000010024000127A003A62000819
:100EA00000093D002DE9F84F040070D02078C04DB6
:100EB000C00749D06868C0F38100012807D068687E
:100EC000C0F38100022809D16868C00306D52868EC
:100ED000800339D560680028E7D035E06068B0F558
:100EE000803F0BD010B1B0F5A02F11D0286820F4AE
:100EF00080302860286820F4802002E0286840F4D0
:100F000080302860606890B1FFF700FE06460AE076
:100F1000286840F480202860F0E700BFFFF7F6FD66
:100F2000801B642873D828688003F7D50CE0FFF78E
:100F3000EDFD064605E000BFFFF7E8FD801B6428D5
:100F4000F0D828688003F7D420789A4E80074FF0B5
:100F500001094FF0000839D5686810F00C0F07D070
:100F60006868C0F38100022809D16868C00306D40C
:100F70002868800714D52069012808D110E020696D
:100F8000B0B1C6F80090FFF7C1FD074605E00AE1E1
:100F9000FFF7BCFDC01B0228C4D828688007F7D51E
:100FA0002868616920F0F80040EAC10028600DE07F
:100FB000C6F80080FFF7AAFD074604E0FFF7A6FD8C
:100FC000C01B022823D828688007F7D420780007A0
:100FD0002CD57948A169D9B1C0F80090FFF796FDEA
:100FE000074604E0FFF792FDC01B02280FD8686A8D
:100FF0008007F7D571484FF4FA510068B0FBF1F063
:10100000009000BF0098411E0091FAD20EE080E0EF
:10101000C0F80080FFF77AFD074604E0FFF776FD91
:10102000C01B022875D8686A8007F7D4207840076B
:1010300060D5E8690027C00008D4E86940F0805016
:10104000E861E869012700F0805000905C48016881
:10105000C90513D40168834641F480710160FFF72C
:1010600055FD824606E000BFFFF750FDA0EB0A00E9
:1010700064284ED8DBF80000C005F5D5E0680128EB
:101080000AD008B1052813D0286A20F00100286290
:10109000286A20F0040002E0286A40F0010028627B
:1010A000E06841F2883B98B1FFF730FD82460BE0E3
:1010B000286A40F004002862EEE700BFFFF726FD33
:1010C000A0EB0A0159455AD8286A8007F6D50CE0EA
:1010D000FFF71CFD824605E0FFF718FDA0EB0A01B3
:1010E00059454CD8286A8007F6D41FB1E86920F02A
:1010F0008050E861E06988B36968C1F38101022921
:1011000044D00228C6F8608004D0FFF7FFFC0446F4
:1011100038E034E0FFF7FAFC074604E0FFF7F6FC9E
:10112000C01B02282BD828688001F7D4206AB0F5AC
:10113000803F05D16868A16820F4003008436860EA
:10114000D4E908010843696821F474110843686010
:10115000C6F86090FFF7DAFC044606E025E000BF21
:10116000FFF7D4FC001B022809D828688001F7D5B6
:101170001BE000BFFFF7CAFC001B022802D90320B6
:10118000BDE8F88F28688001F4D40EE00128F7D07C
:101190006868226A00F48031914204D1616A00F4E7
:1011A0007010884201D00120EAE70020E8E7000043
:1011B0000010024000004242800442421800002019
:1011C000007000407047704710B590F83C20012A2D
:1011D00022D0012280F83C20CA688C6822F4407238
:1011E00022434C6822F4806222430C6822F400629D
:1011F00022430C6922F4805222434C6922F40052AB
:101200002243C969002322F480420A4301684A64E8
:1012100080F83C30002010BD022010BD70B590F861
:101220003C20012A2CD0012480F83C40022280F886
:101230003D2003685A689D6822F070060A683243B0
:101240005A60104B02689A420ED00F4B9A420BD054
:10125000B2F1804F08D00D4B9A4205D00C4B9A4208
:1012600002D00C4B9A4204D1496825F080031943FF
:10127000916080F83D40002180F83C10084670BD28
:10128000022070BD002C01400034014000040040E9
:1012900000080040000C004010B5040003D094F892
:1012A0003D0010B107E0012010BD002084F83C0093
:1012B000204600F01FF8022084F83D00211D206820
:1012C00001F0B4FB012084F8460084F83E0084F865
:1012D0003F0084F8400084F8410084F8420084F81C
:1012E000430084F8440084F8450084F83D00002061
:1012F00010BD000008B5114A01681148914211D192
:10130000C16941F01001C161C069002200F0100004
:10131000009006213620FFF797FCBDE808403620F4
:10132000FFF784BC074A914207D1816941F400511B
:101330008161806900F40050009008BD00100040F9
:10134000001002400034014090F83D10012901D006
:1013500001207047022180F83D100168CA6842F000
:101360000102CA6000680E4988420ED00D498842C9
:101370000BD0B0F1804F08D00B49884205D00B4903
:10138000884202D00A49884204D1816801F00701ED
:10139000062903D0016841F0010101600020704777
:1013A000002C0140003401400004004000080040CF
:1013B000000C004070B5044690F83C000025012860
:1013C00017D0012684F83C60022084F83D00206894
:1013D000826822F0770222F47F42826008685028F7
:1013E00038D00DDC20284FD005DC90B3102811D167
:1013F0004AE0022070BD302846D040280AD13BE0A8
:1014000060282FD070280DD0B0F5805F03D0B0F5E4
:10141000005F12D0012584F83D60002084F83C0074
:10142000284670BDCB68D1E90121206801F059FB45
:101430002068816841F0770109E0CB68D1E901219A
:10144000206801F04EFB2068816841F48041816092
:10145000E1E719E0CA684968206801F017FC5021EB
:10146000206806E0CA684968206801F020FC602115
:10147000206801F040FBCEE7CA684968206801F0A7
:1014800005FC40212068F4E7226801461046F0E799
:101490002DE9F0410D46040003D094F83D0018B149
:1014A00008E00120BDE8F081002084F83C002046DF
:1014B00000F040F8022084F83D002068816844F282
:1014C000070291438160211D206801F0AFFA226874
:1014D00090689169166A2B68AF69034340F2033044
:1014E000814341EA0721A868EF6908434FF6FC41B0
:1014F0008843E96840EA0720014328692F6A000110
:1015000040EA0730084369686D6926F0220646EA1A
:101510000515294393602268906154F8460B0162D7
:10152000012004F81F09E0752076E0762077A07589
:101530000020B7E730B585B00024009401940294F0
:10154000039400683F49404B404DB0F1804F15D0A7
:101550003F4CC022A04243D1C86940F00200C8619C
:10156000C86900F002000490886940F004008861B6
:101570008869009200F0040004905FE0C86940F0C0
:101580000100C861C86900F001000490886940F05A
:1015900004008861886900F004000490886940F0C4
:1015A000080088618869694600F0080004904FF4DB
:1015B000004000901846FFF7A7F90820CDE9000485
:1015C000694628460294FFF79FF92248416821F4B2
:1015D000407141F0E06141F48071416005B030BD7F
:1015E0001D4CA04215D1C86940F00400C861C8690B
:1015F00000F004000490886940F008008861886960
:10160000694600F00800049000922846FFF77CF934
:10161000E4E7124A9042E1D1C86940F00800C8618D
:10162000C86900F008000490886940F004008861EF
:10163000886900F004000490032000906946184671
:10164000E4E700000010024000080140000C0140E7
:10165000000400400000014000080040000C004071
:1016600070B590F83E60044690F83F5090F84230D4
:1016700090F84320022021B104290ED0012E1BD165
:1016800014E0012E18D1012B16D184F83E0084F805
:10169000420001220021206820E0012D0CD1012A06
:1016A0000AD184F83F0084F8430014E0012D03D1EF
:1016B000012B01D1012A01D0012070BD84F83E0028
:1016C00084F83F0084F8420084F84300012200219E
:1016D000206801F0F9F901220421206801F0F4F9F1
:1016E0002068016841F001010160002070BD704771
:1016F0002DE9F04104460068C66805694FF000070F
:10170000A90713D5B10711D5F91E01610120207772
:10171000206880698007204602D0FFF7E8FF04E0D8
:1017200000F0BCF8204600F061F92777680716D56D
:10173000700714D521686FF004000861022020773B
:101740002068806910F4407F204602D0FFF7CFFF69
:1017500004E000F0A3F8204600F048F927772807B6
:1017600015D5300713D521686FF0080008610420F3
:1017700020772068C0698007204602D0FFF7B7FFB6
:1017800004E000F08BF8204600F030F92777E806F7
:1017900016D5F00614D521686FF0100008610820F6
:1017A00020772068C06910F4407F204602D0FFF700
:1017B0009EFF04E000F072F8204600F017F927774A
:1017C000E80708D0F00706D021686FF00100086133
:1017D000204600F067F9280608D5300606D52168AE
:1017E0006FF0800008612046FFF7ECFC680608D522
:1017F000700606D521686FF040000861204600F0B1
:101800005BF9A8060AD5B00608D521686FF020005C
:1018100008612046BDE8F041FFF7D5BCBDE8F08186
:1018200000B585B000210091019102910391164B02
:101830000268164802219A420FD1826942F00402DE
:1018400082618069039100F0040004904FF470609D
:10185000CDE9000169460E4811E00E4B9A4210D1C5
:10186000826942F0100282618069039100F01000E9
:1018700004904FF47070CDE9000169460648FFF707
:1018800043F805B000BD0000002C014000100240EC
:10189000000801400034014000100140704770B55D
:1018A000044690F83C0000260D4601280FD0012088
:1018B00084F83C006AB1042A1DD0082A2FD00C2AD3
:1018C0003FD00126002084F83C00304670BD022045
:1018D00070BD206801F018F92068816941F00801A5
:1018E00081612068816921F004018161206881693A
:1018F0002A69114311E0206801F036F920688169F6
:1019000041F4006181612068816921F48061816115
:10191000206881692A6941EA02218161D2E7206851
:1019200001F058F92068C16941F00801C1612068DF
:10193000C16921F00401C1612068C1692A691143AC
:1019400011E0206801F07AF92068C16941F4006172
:10195000C1612068C16921F48061C1612068C169E9
:101960002A6941EA0221C161ACE710B5040003D045
:1019700094F83D0010B107E0012010BD002084F86C
:101980003C00204600F01EF8022084F83D00211D96
:10199000206801F04BF8012084F8460084F83E00EE
:1019A00084F83F0084F8400084F8410084F8420045
:1019B00084F8430084F8440084F8450084F83D002E
:1019C000002010BD08B500680649884208D10648C5
:1019D000816941F400618161806900F400600090D8
:1019E00008BD0000002C01400010024070470000BC
:1019F00010B50446022249B104290ED0082913D09B
:101A000094F84100012816D0012010BD94F83E0042
:101A10000128F9D184F83E200FE094F83F00012816
:101A2000F2D184F83F2008E094F840000128EBD17F
:101A300084F8402001E084F841200122206801F070
:101A400043F813492068134A884201D0904203D1D9
:101A5000436C43F400434364206888420DD09042B5
:101A60000BD0B0F1804F08D00B49884205D00B490C
:101A7000884202D00A49884204D1816801F00701F6
:101A8000062903D0016841F001010160002010BD6A
:101A9000002C0140003401400004004000080040D8
:101AA000000C004000680349884201D1FFF734B8B8
:101AB00070470000001400407047704770470000F6
:101AC000F8B5016804460868CA684B6910F00F0F42
:101AD0004FF0000559D003F0010602F49077374328
:101AE00065D0C10705D0D10503D5616C41F0010176
:101AF0006164410705D5D90703D0616C41F002014B
:101B00006164810705D5D90703D0616C41F00401F8
:101B10006164010707D502F02001314303D0616CF5
:101B200041F008016164616C00293AD0800604D557
:101B3000900602D5204601F080F920684069616C6A
:101B4000C0F38010090700D460B3204601F040F9CB
:101B500020684069400621D52068143050E8001FF5
:101B600021F0400140E80012002AF5D1E06BA8B155
:101B70006D494163E06BFEF783FC002811D0E06BF8
:101B8000416B01B0BDE8F040084783060FD59306CE
:101B90000DD52046BDE8F84001F04FB92046FFF7CB
:101BA0008DFFF8BD2046FFF789FF6564F8BD266B01
:101BB0002023012E7CD1C6067AD5D60678D50868B2
:101BC0004868009048694FF00206400640D5E16B36
:101BD000086840680004000CE8D0A28D8242E5D974
:101BE000E085886920282DD020680C3050E8001F3F
:101BF00021F4807140E80012002AF5D120681430E9
:101C000050E8001F21F0010140E80012002AF5D140
:101C10002068143050E8001F21F0400140E8001215
:101C2000002AF5D184F84230256320680C3050E852
:101C3000001F21F0100140E80012002AF5D1E06BEE
:101C4000FEF7FAFB6663A08DE18D401A81B22AE0AF
:101C5000A08DE18D401A81B2E08D0028A6D0002928
:101C6000A4D022680C3252E8000F20F4907042E8B1
:101C70000007002FF5D12068143050E8002F22F023
:101C8000010240E80027002FF5D184F84230256397
:101C900020680C3050E8002F22F0100240E80023AA
:101CA000002BF5D166632046FFF707FFF8BDFFE77D
:101CB00005062BD5150629D594F841002128F5D124
:101CC000A068B0F5805F01D12069B0B1206A411CE5
:101CD0002162216800784860E08C401E0004000CFE
:101CE000E084E3D12068C16821F08001C1602068F0
:101CF000C16841F04001C160D8E7206A0088C0F3A4
:101D000008004860206A801C2062E5E74006CDD5C7
:101D10005006CBD5CA68204622F04002CA6084F83B
:101D2000413000F0C8F8C1E7D32C000870B50400BA
:101D300004D094F84100002510B106E0012070BDE8
:101D400084F84050204600F023F8242084F8410015
:101D50002068C16821F40051C160204601F0CEF82E
:101D60002068016921F4904101612068416921F0F6
:101D70002A0141612068C16841F40051C160656475
:101D8000202084F8410084F842006563002070BD83
:101D9000F0B585B0002406460094019402940394A3
:101DA00000682D49884254D12C48C16941F48021F2
:101DB000C161C16901F480210491816941F0080188
:101DC00081618069264D00F0080004904FF4806026
:101DD0000090022001900320039069462846FEF7F8
:101DE00093FDE814CDE90004694628460294FEF705
:101DF0008BFD1D4D1B488027C5E90004C5E902473E
:101E00002C616C61AC612846EC61FEF7F5FC08B111
:101E1000FEF710FBF5636E62134D1248443514381B
:101E200001C5102091C5104845F8104944306C6137
:101E3000AC61EC61FEF7E0FC08B1FEF7FBFAB563BC
:101E40000022052127206E62FEF7FEFE2720FEF706
:101E5000EDFE05B0F0BD000000480040001002405B
:101E6000000C0140300002402404002090F8423071
:101E7000202B01D00220704721B11AB10023036347
:101E800001F098B80120704710B5006806498842F3
:101E900002D1064802F08CFCBDE810400B22034939
:101EA0000348FFF7E3BF0000004800408400002023
:101EB000DC03002070477047FEE700000D4808B5BE
:101EC000416941F0010141614069002200F00100D7
:101ED000009005210C20FEF7B7FE0C20FEF7A6FEB1
:101EE000002205210D20FEF7AFFEBDE808400D20C1
:101EF000FEF79CBE0010024010B596B01C2211499E
:101F00006846FEF7CFF90021684601F09EFC0E4CB2
:101F10000C491C2220601C3107A8FEF7C3F90021E0
:101F200007A801F092FC074960601C2238310EA816
:101F3000FEF7B8F900210EA801F087FCA06016B0EA
:101F400010BD0000E4610008000000202DE9F0430E
:101F500085B000242C480094019402940394816974
:101F600041F020018161816901F0200104918169C2
:101F700041F010018161816901F0100104918169D2
:101F800041F004018161816901F0040104918169DA
:101F900041F00801816180691C4F00F0080041F6A2
:101FA00036450490002229463846FEF7A9FDDFF8A1
:101FB0006080002230214046FEF7A2FDDFF85490F9
:101FC000002204214846FEF79BFD009502260125CC
:101FD0000396CDE9015469463846FEF795FC30205A
:101FE000CDE90005CDE9024669464046FEF78CFC86
:101FF0000420CDE90005CDE9024669464846FEF7D2
:1020000083FC05B0BDE8F0830010024000100140E1
:10201000000801400014014010B592B000240F9454
:102020001C2168461094FEF76FF9202107A8FEF7DF
:102030006BF92C482A49C0E9001441F61F41C0E958
:10204000024180210461C0E90541FFF78EFC08B11F
:10205000FEF7F0F90F940FA922481094FFF7DEF86D
:1020600008B1FEF7E7F96020CDE90004029403947B
:1020700004940594002269461A480694FFF70FFC61
:1020800008B1FEF7D7F9042269461648FFF707FCA6
:1020900008B1FEF7CFF9082269461248FFF7FFFBA7
:1020A00008B1FEF7C7F90C2269460E48FFF7F7FBA7
:1020B00008B1FEF7BFF90794089409944FF4005053
:1020C0000A94CDE90B4007A906480E94FFF77CF867
:1020D00008B1FEF7AFF90348FFF7A2FB12B010BD3D
:1020E000002C0140E401002010B58CB0242168468A
:1020F000FEF70AF90024154809944FF080410A942C
:10210000C0E9001444F62061C0E902410461846121
:102110000320CDE900040120CDE902040494CDE9B7
:1021200005400794694609480894FFF7B1F908B1DA
:10213000FEF780F9099409A904480A94FFF76EF89C
:10214000002801D0FEF776F90CB010BD2C0200205B
:1021500010B58CB024216846FEF7D6F80024164846
:10216000099414490A94C0E9001444F62061C0E9B6
:102170000241046184610320CDE900040120CDE91E
:1021800002040494CDE90540079469460A4808947E
:10219000FFF77EF908B1FEF74DF9099409A9064841
:1021A0000A94FFF73BF8002801D0FEF743F90CB082
:1021B00010BD0000000400407402002010B58CB077
:1021C00024216846FEF7A0F8002416480994144913
:1021D0000A94C0E9001444F62061C0E90241046198
:1021E00084610320CDE900040120CDE902040494B8
:1021F000CDE90540079469460A480894FFF748F975
:1022000008B1FEF717F9099409A906480A94FFF7DF
:1022100005F8002801D0FEF70DF90CB010BD000044
:1022200000080040BC02002010B58CB02421684694
:10223000FEF76AF800241648099414490A94C0E984
:10224000001444F62061C0E9024104618461032066
:10225000CDE900040120CDE902040494CDE9054054
:10226000079469460A480894FFF712F908B1FEF787
:10227000E1F8099409A906480A94FEF7CFFF00285F
:1022800001D0FEF7D7F80CB010BD0000000C0040E4
:10229000040300201CB500240E4800940C4901944E
:1022A00001604721C0E9011442F20F718461C160ED
:1022B000FEF7F2FF08B1FEF7BDF800946946054845
:1022C0000194FEF7ABFF002801D0FEF7B3F81CBD68
:1022D000001000404C03002010B596B000240F946D
:1022E00010941194129413941C2168461494FEF7D0
:1022F0000BF8202107A8FEF707F834483249C0E957
:10230000001441F61F41C0E9024104614461846147
:10231000FEF7C2FF08B1FEF78DF84FF480500F9022
:102320000FA92A48FFF746F808B1FEF783F82748B7
:10233000FFF71BFB08B1FEF77DF8139413A92348A0
:102340001494FEF76BFF08B1FEF774F86020CDE936
:1023500000040294039404940594002269461B48E7
:102360000694FFF79CFA08B1FEF764F80422694668
:102370001648FFF794FA08B1FEF75CF808226946A0
:102380001248FFF78CFA08B1FEF754F80C226946A0
:102390000E48FFF784FA08B1FEF74CF8079408944A
:1023A00009944FF400500A94CDE90B4007A907485F
:1023B0000E94FEF709FF08B1FEF73CF80348FFF75B
:1023C0002FFA16B010BD0000003401409403002025
:1023D0000C4810B50A4901604FF4E1314160002119
:1023E00081600C22C160C0E904128161C161FFF704
:1023F0009DFC002803D0BDE81040FEF71BB810BDBF
:1024000000480040DC030020FEE770B50446006C85
:1024100003F0D4FC05B2E06B03F0D0FC01B22A4615
:1024200004F1440000F0D9F8A4F8540070BD000095
:1024300070B504460E1EC068218A1ADD5FF00102E5
:10244000FEF75EFB218B0022D4F81400FEF758FB48
:102450003046A56802F0E5FF21F0004102F0B4FF2C
:1024600085B1042D12D06168082D096812D0086466
:1024700070BD4FF00002E3DAFEF742FB218B012230
:102480006069E3E761680968486370BD616809686D
:10249000886370BDC86370BD01680968496A0162DC
:1024A000C269891A42F210724162914202DDA1EBC7
:1024B000420105E042F21072D14202DA52001144A8
:1024C000416270472DE9F041044606A890E8E0100B
:1024D0000D48A0660D48E0660D4820670D4860670E
:1024E0000D48A06702C4104629C4194624F8106993
:1024F0006761A4F818C0FFF77BFA2068BDE8F041D7
:102500003C21FFF7ADB800001D2500089924000804
:10251000312500080B24000831240008FEB508AF5F
:10252000443097E870008DE8700000F0C7F8FEBDF9
:102530002DE9F0410446006AE061606A03F05AFC4C
:102540001C4903F079FB1C4903F06CFC06461B494F
:10255000A06203F067FC012103F005FE03F0D8FA46
:10256000174A184B02F0C4FF0022174B02F0A4FDDB
:1025700002F0B4FCE062A16BC4E90D16084603F05A
:10258000C7FADFF84880124B424602F0B1FF074617
:102590000D46304603F0BCFA42460E4B02F0A8FF4F
:1025A0003A462B4602F0CCFC02F098FCE063BDE812
:1025B000F08100000000A544000016440000204205
:1025C000462C4454FB21094000004E409A999999A9
:1025D0009999C93F9999E93FFEE72DE9F047040031
:1025E0000FD0B4F920006084B4F91E602684A28163
:1025F000E181511A0DB2E583217829B1012925D055
:1026000059E00020BDE8F0876088684302B262822A
:10261000B4F91400B4F9041001FB050000B2A08263
:10262000618BA183218B6183A91B2183E3884B43A9
:102630001BB2E382B4F90A10884202DC49428842A4
:1026400000DAA182A08A104418442AE06288A91BFB
:1026500051436182A78888466F43A782618BA1831B
:10266000218B618303F0C6FB8146304603F0C2FB39
:10267000012103F078FD0646284603F0BBFB3146F6
:1026800003F09CFC494603F06FFA03F097FB014608
:102690002083E0884843E082228A384402EB080124
:1026A000084400B22082B4F90810884202DC494292
:1026B000884200DA2182B4F91000A3E72DE9F04145
:1026C0000400DDE90606089D984617461ED02170D5
:1026D00003F074FB6080304603F070FBA080284656
:1026E00003F06CFBE080384603F068FB2081404635
:1026F00003F064FB60810020A0836083208320823C
:10270000E082A082608260842084E083BDE8F08162
:10271000012001F087F8FBE702F012FB01F04CF812
:10272000044604211748FFF763F9164DDFF8589067
:102730004FF4FA7640F6C4174FF47A78207E20B131
:1027400028688663404601F06DF8607E20B12868F5
:102750008763404601F066F8A07E38B1012204216B
:102760004846FEF7CDF9404601F05CF8E07E0028CF
:10277000E4D0002204214846FEF7C2F9404601F0A9
:1027800051F8DBE7E401002000100140ADF5067DC3
:1027900002F0D6FA4FF08046849000223346684813
:1027A000684901F07DF805460C460022334666482C
:1027B000664901F075F82A46234602F0C1FB01F094
:1027C000D1FF00F0F9FF0746F014614C4110CDE94C
:1027D0000041CDE9024000235E4A5F4904A8FFF7AB
:1027E00071FE04205D49820203900094CDE901212D
:1027F000034623A8574A5A498090FFF763FE594879
:1028000020251026CDE90006CDE9020542A80823BF
:10281000504A55498190FFF755FECDE9004661A821
:102820000C234C4A51498346CDE90245FFF74AFE45
:10283000504E4FF000084E4D0096CDE90158DFF89C
:102840003891DFF838A1DDF878C044464B4652464F
:10285000012104A8E0470096CDE90154DDF8F4C059
:102860004B46524601218098E0470096CDE901543D
:102870005C9D4B46524601218198A84740484149FA
:10288000CDE9001002947B9C4B46524601215846EC
:10289000A0470DF1100900BFD7E9014521462846A0
:1028A0003E6903F08BFB314603F05EF91490294634
:1028B000204603F059F9314603F056F93390294682
:1028C000204603F07BFB314603F04EF9529084F032
:1028D0000040294603F072FB314603F045F900241D
:1028E0004E467190C4EB441006EB8000C16E8847E1
:1028F000641C042CF6D30024C4EB441006EB8000C7
:10290000016F8847641C042CF6D30025C5EB4510E5
:1029100006EB80042046616F8847206C10F0FF4F63
:1029200001D1A4F85480A26FB4F954102046904706
:102930006D1C042DEAD3632184A800F07AFFABE775
:10294000295C8FC2F528BC3FF6285C8FC2F5C03FDA
:1029500000100140940300202C02002000140140CC
:102960007402002000080140BC0200200403002083
:102970006666663F00009841000061450000E14541
:10298000CDCC8C3F0000C84110B5502080F3118899
:10299000BFF34F8FBFF36F8F02F0D8F918B104491E
:1029A0004FF080500860002080F3118810BD0000B7
:1029B00004ED00E030B58FB028216846FDF7A4FC97
:1029C00014210AA8FDF7A0FC01210804CDE900109C
:1029D0000024029402250491CDE907504FF4E01041
:1029E00009906846FEF75EFA08B172B6FEE70F205E
:1029F000CDE90A054FF48060CDE90C4002210AA818
:102A00000E94FEF753F9002801D072B6FEE70FB01E
:102A100030BD70470148FEF76BBE00004C0300203C
:102A20000148FEF765BE0000AC040020F0B5026866
:102A3000204C214D214E224F224B4FF0804CA04282
:102A400009D0984207D0604505D0A84203D0B042D3
:102A500001D0B84204D122F0700E4A6842EA0E0258
:102A6000A04209D0984207D0604505D0A84203D0C3
:102A7000B04201D0B84203D122F44075CA682A435B
:102A80004D6922F080022A4302608A68C2620A68A5
:102A90008262A04201D0984201D1096901630121FB
:102AA00041610169C90703D0016921F00101016198
:102AB000F0BD0000002C0140000400400008004070
:102AC000000C00400034014010B501F01F0301214B
:102AD000046A99408C430462016A9A40114301627E
:102AE00010BD10B5846842EA032224F47F440A43EF
:102AF0002243826010BD826822F070020A4342F0D5
:102B00000701816070470000F0B5036A026A22F095
:102B10000102026242688469124E24F073050C6857
:102B20002C4323F002058B682B430D4DA84201D0A6
:102B3000B04205D123F00807CB683B4323F00403E0
:102B4000A84201D0B04205D14D6922F4407215432C
:102B50008A692A4342608461496841630362F0BD27
:102B6000002C014000340140F0B5026A036A23F0F2
:102B700010030362436884690D6824F4E64444EA60
:102B800005248D6822F0200242EA05120F4D104EF6
:102B9000A84201D0B04206D1CF6822F0800242EABA
:102BA000071222F04002A84201D0B04207D14D697D
:102BB00023F4406343EA85038D6943EA8503436058
:102BC0008461496881630262F0BD0000002C01400D
:102BD00000340140F0B5026A036A23F48073036293
:102BE0004368C46922F4007224F073050C68124E25
:102BF0002C438D6842EA05220E4DA84201D0B04216
:102C000006D1CF6822F4006242EA072222F48062F1
:102C1000A84201D0B04207D14D6923F4405343EAA2
:102C200005138D6943EA05134360C4614968C163B4
:102C30000262F0BD002C01400034014030B5046A4E
:102C4000026A22F4805202624268C3690D6823F46A
:102C5000E64343EA05238D6824F4005444EA05342E
:102C6000084DA84202D0084DA84204D14D6922F473
:102C7000804242EA85124260C3614968016404628D
:102C800030BD0000002C01400034014010B5036A43
:102C9000046A24F001040462846924F0F00444EA24
:102CA000021423F00A020A438461026210BD10B5C7
:102CB000036A046A24F010040462846923F0A00308
:102CC00024F4704444EA023243EA01118261016251
:102CD00010BD10B5406A0021C185C184FEF7EEFE2B
:102CE00010BD70B5446A2068406994F84110C0F383
:102CF000C0100025212904D118B1E584204600F038
:102D00008EF82068406994F84210C0F380102229A0
:102D100004D118B1E585204600F05AF8606C40F007
:102D2000100060642046FEF7C9FE70BD10B5014674
:102D3000406A096809684FF0000289062ED4C285EE
:102D400001680C3151E8003F23F4807341E80034FE
:102D5000002CF5D10168143151E8003F23F0010344
:102D600041E80034002CF5D10168143151E8003FEE
:102D700023F0400341E80034002CF5D1202180F8F5
:102D80004210016B012909D101680C3151E8003F63
:102D900023F0100341E80034002CF5D14263016BAD
:102DA000012902D0FFF770F810BD818DFEF785FE76
:102DB00010BD10B5406A01214163016B012902D0A9
:102DC000FFF778F810BD818D4908FEF776FE10BD3B
:102DD00001680C3151E8002F22F4907241E8002381
:102DE000002BF5D10168143151E8002F22F00102C7
:102DF00041E80023002BF5D1016B012909D10168BD
:102E00000C3151E8002F22F0100241E80023002B82
:102E1000F5D1202180F8421000210163704701683C
:102E20000C3151E8002F22F0C00241E80023002BB2
:102E3000F5D1202180F84110704708B590F8421074
:102E4000222901D0022008BD82684FF480539A42A3
:102E500001D1016921B1816A9A421BD04AB10AE0CD
:102E60000268816A5268C2F308020A80816A891C7A
:102E700008E0026972B10268526802F07F020A70CB
:102E8000816A491C8162C18D491E0904090CC185F2
:102E900003D01BE002685268F1E70168CA6822F0BB
:102EA0002002CA600168CA6822F48072CA600168A0
:102EB0004A6922F001024A61202180F84210002173
:102EC0004163026B012A03D0FEF7DEFF002008BD3C
:102ED000016301680C3151E8002F22F0100241E833
:102EE0000023002BF5D101680A68D20602D50A68D2
:102EF00049680091818DFEF7E0FDE7E770B5044673
:102F000000680169E26821F44051114301612169BF
:102F1000A0680843616908432168CA6841F20C63EC
:102F20009A430243CA6020684169A26921F4407152
:102F3000114341611E492068884202D1FDF77CFFA0
:102F400001E0FDF769FF00EBC00101EB00126068D2
:102F500064218000B2FBF0F3B3FBF1F36FF01806CD
:102F60007343B2FBF0F5B2FBF0F605EB83053223B9
:102F700003EB0515B5FBF1F5B6FBF1F605F0F00531
:102F800005EB0615B2FBF0F6B2FBF0F0B0FBF1F08A
:102F90006FF01802504306EB800003EB0010B0FB0B
:102FA000F1F0216800F00F002844886070BD000037
:102FB0000038014038B581620446828500201346FE
:102FC0006064222284F84220E56B1B4AAA62E56B0A
:102FD0001A4AEA62E56B1A4A2A63E26B50630A46B0
:102FE0002168E06B091DFDF745FC20680168406819
:102FF0000090206948B120680C3050E8001F41F46F
:10300000807140E80012002AF5D12068143050E8A1
:10301000001F41F0010140E80012002AF5D12068AC
:10302000143050E8001F41F0400140E80012002A2F
:10303000F5D1002038BD00002D2D0008B32D00086B
:10304000E32C00080148FEF73BBD0000DC03002034
:10305000FEE7490050EAC12018BF04204A0D18BFFE
:1030600040F0010040F2FF72B2EB515F08BF40F048
:103070000200012808BF052070470907090E002833
:1030800004DB00F1E02080F80014704700F00F002E
:1030900000F1E02080F8141D704700002DE9F74F83
:1030A000144694B00021C4E902111599079121F04A
:1030B0000045C9498D4206DC1599C4E9000117B0E5
:1030C0000020BDE8F08FC549DFF814A3A9423CDD1C
:1030D0000799C44E0029C44FC44A1599534619DDB7
:1030E00002F02CFC554506D0C14AC24B02F026FC2A
:1030F000C4E900010AE04FF0D352BE4B02F01EFCBF
:1031000032463B4602F01AFCC4E9000117B0012028
:10311000BDE8F08F01F014FF554506D0B44AB54B19
:1031200001F00EFFC4E900010AE04FF0D352B14BA9
:1031300001F006FF32463B4601F002FFC4E9000100
:1031400017B04FF0FF30BDE8F08FAB49A942159999
:1031500078DB21F0004183468846A84AA84B02F05C
:10316000C7F90022A74B01F0EBFE02F0FDF8099031
:1031700002F057F906460F469C4A534602F0B8F94A
:1031800043465A4602F0E8FA80468A46984A994BE6
:103190003046394602F0ACF92A0D01250B92424621
:1031A000534602F0D9FA032DC4E9000139D00B9837
:1031B000C1F30A51401A05EB45111139814230DA49
:1031C0009148C346784400EB0510CDF80CA00C9054
:1031D000D0E900233046394602F08AF902460B4610
:1031E000049106905846039902F0A8FB80468A464F
:1031F00002460B465846039902F0A0FB049B069A30
:1032000002F09CFB83460C9803913946D0E90223D7
:10321000304602F06DF95A46039B02F08FFB6D1C9D
:10322000BDE707980028A2BF099817B0BDE8F08F46
:10323000616881F000416160099817B04042BDE8C3
:10324000F08FFFE784461598C1F31301C0F30A50CD
:10325000A0F2F5304FEA601800F01F06C6F120001A
:10326000139000200690079041F4801E05206D46C3
:1032700076B1664A08EB00017A4452F8213002EB3D
:103280008101B3404A68139922FA01F1194305E01C
:103290005F4908EB0002794451F82210A1FB0E2788
:1032A000A1FB0C131A449A4234BF0123002303EB01
:1032B000070A05EB8003D3E901B70F448F4234BFFF
:1032C0000121002193448B4411B1934502D903E0BD
:1032D000934501D2012100E00021C3E901B7514427
:1032E00045F82010011EA0F10100C1DC0298059FE5
:1032F00000F10050800F12900298DDE90356800023
:1033000002F08FF8834628460D9102F0A1F86FF085
:103310001D0202F0FAFECDE90E01304602F098F8E7
:103320006FF03D0202F0F1FE80468A46384602F018
:103330008FF86FF05D0202F0E8FE07464246534602
:10334000119101F0FDFDDDE90E2301F0F9FD5A4672
:103350000D9B01F0F5FD00250E465A4628460D9BB3
:1033600002F0ECFADDE90E2302F0E8FA4246534699
:1033700002F0E4FA3A46119B02F0EEF9DFF898A069
:10338000244A534602F0B4F807468846234A244BA1
:103390003146284602F0ACF83A46434601F0D0FDEB
:1033A000074688464FF0A84253463146284602F069
:1033B0009FF83A46434601F0C3FD159A12F0004FBC
:1033C00004D0129A81F0004152421292C4E90001E5
:1033D000129817B0BDE8F08FFB21E93F7CD902407D
:1033E000FB21F93F7370032E8A19A33B0000405460
:1033F0003163621A61B4D03DFB21394183C8C96D84
:10340000305FE43F0000E03F60310000DC3000004E
:10341000BE300000182D4454FB21F93D3326A6117F
:10342000460B113C2DE9FF4D21F0004807460C46A4
:10343000B8F1795F08DA01F097FF002801BF00209A
:10344000324904B0BDE8F08D3A462346104619468D
:1034500002F04EF8054602462D480E460B46062160
:10346000784400F05DF82A46334602F041F8DDE981
:10347000022382468B463846214602F039F804463C
:103480000F4652465B462846314602F031F8224646
:103490003B4602F053FA07468A464FF0FF32284671
:1034A000314602F032FE1B4A90450ADA3A4653464C
:1034B00002F044FA04B00022BDE8F04D134B02F0D4
:1034C0004BB9154A4245A8BFA8F500154FF00004B6
:1034D000B8BF124D22462B4602F030FA0646884607
:1034E00022462B460020094902F028FA04460D46E0
:1034F0003A4653463046414602F020FA04B022468E
:103500002B46BDE8F04D02F027B900000000F03F67
:103510008C2E00003333D33F0000E93F0000D23F40
:103520002DE9F0414F1E00EBC7010446D1E900012F
:1035300015461E4637F006020DD02A46334601F0E6
:10354000D7FF7F1E04EBC703D3E9002301F0F8FC8B
:1035500037F00602F1D1022F25D0042F13D0062F09
:1035600018BFBDE8F0812A46334601F0C1FFD4E917
:103570000A2301F0E5FC2A46334601F0B9FFD4E9FD
:10358000082301F0DDFC2A46334601F0B1FFD4E9FF
:10359000062301F0D5FC2A46334601F0A9FFD4E901
:1035A000042301F0CDFC2A46334601F0A1FFD4E903
:1035B000022301F0C5FC2A46334601F099FFD4E905
:1035C0000023BDE8F04101F0BBBC00002DE9FF4D38
:1035D000054621F0004084B00C46B0F1795F0BDA6B
:1035E0002846FFF736FD042808BF00F07FF828467C
:1035F00008B02146BDE8F08D2A460B46104601F082
:1036000077FF06460F462A46234601F071FF8046A3
:1036100026488A4632463B4605217844FFF780FF1C
:1036200083461098029160B3214A224B404651468E
:1036300001F05EFFCDE900015A4640465146029B2B
:1036400001F056FF82468846DDE906014FF0FF3261
:1036500002F05BFD5246434602F070F932463B46AB
:1036600001F046FFDDE9062302F068F9DDE90023F9
:1036700002F064F908B02A462346BDE8F04D02F096
:103680006BB80B465A463046394601F031FF084ABE
:10369000084B01F055FC4246534601F029FF08B0A3
:1036A0002A462346BDE8F04D01F04ABCD22D000069
:1036B000495555555555C5BF002213461046014979
:1036C00001F0FABC0000F03F012202F01EBD01F043
:1036D00037BC002213461046114601F0EDBC40F203
:1036E000013200204FF0E04102F00FBD024A0020FD
:1036F000110702F00ABD000001FDFFFF00B5244BD9
:1037000021F0004287B09A42DCBF0022134629DD37
:10371000204B9A4208D140B94FF00100FCF723FE3C
:10372000FFF7D7FF07B000BD03DBFFF7CDFF07B002
:1037300000BD02AAFFF7B2FC10F0030104BF0DF1B7
:10374000080C9CE80F000DD0012001290ED00229A1
:1037500014D00DF1080C00909CE80F00FFF736FF25
:1037600007B000BDFFF75EFE07B000BD0DF1080C0D
:1037700000909CE80F00FFF729FF05E00DF1080C11
:103780009CE80F00FFF74EFE07B081F0004100BD3E
:10379000FB21E93F0000F07F10B502F02BFB04494C
:1037A00002F040FBBDE81040024902F045BA0000BB
:1037B000DB0F49400000344300487047E41100200B
:1037C000FDF7B2F9FFF7F6F8FEF7C0FBFEF776FB60
:1037D000FEF760FDFEF780FDFEF786FCFEF7B8FC05
:1037E000FEF7ECFCFEF720FDFEF7F2FDFEF714FC01
:1037F0000B2207490748FEF739FBFEF77DFB00F077
:103800001FF84FF47A742046FDF76CF8FBE70000D0
:1038100084000020DC03002001460020842900D021
:10382000C81C704710B500B9012001F005F900204F
:1038300010BD10B501B9012101F024F9002010BD1F
:1038400010B501F065F9002010BD7FB50D460446A6
:103850004169B0F9080081B1A16971B1FFF7DCFFDE
:10386000D4E905128DE80700D4E900102B4622693F
:1038700001F03BFA039004B070BDFFF7CDFF03A940
:10388000CDE90001208A2B4682B2D4E9001001F074
:10389000FFF9012801D00020EDE70398EBE70000D5
:1038A0002DE9F04D1D460C4698B0174621F0004119
:1038B00023F00043002814BF4FF0010C4FF0000C20
:1038C0000CEB440CFE4A0CEB02064FEA620C664518
:1038D0002BD33E0018BF012606EB45061644F94AD5
:1038E000964222D3F84A53EA070C02D0944205D1FB
:1038F00048B918B000201146BDE8F08D002808BF77
:103900004FF0000C01D04FF0010C0CEB440212F50B
:10391000001F0AD8002F14BF4FF0010C4FF0000C0D
:103920000CEB450212F5001F07D918B03A462B469A
:103930002146BDE8F04DFFF7CABE0022DFF88CA398
:10394000002CB8BF534526DADFF884C36345A8BF0F
:10395000022220DADFF870C39C451CDCDFF874C358
:103960000CEB235CBCF1140F08DDCCF1340627FA14
:1039700006FC0CFA06F6BE420DD108E05FB9CCF1A8
:10398000140623FA06FC0CFA06F69E4203D10CF04C
:103990000102C2F1020251EA000C19D1002D17DA1E
:1039A000002C18BF022A01D0012A07D00220FCF700
:1039B000DAFC18B0BDE8F04DFFF77EBE0220FCF740
:1039C000D2FCFFF779FE18B081F00041BDE8F08D20
:1039D000B7F1000C6CD1534525D104F1804212F5AA
:1039E000801201BF00280020B74918B008BFBDE809
:1039F000F08DB548884207DC002DA1BF60462946FE
:103A000018B0BDE8F08D07E0281E05DA80F000410F
:103A100018B06046BDE8F08DAF497944D1E90001A6
:103A200018B0BDE8F08DDFF8A0C2634525D1002DA8
:103A30001FDA19B1514512D1D8B909E0002840F078
:103A4000EC82A24A214618B062F31E01BDE8F08D57
:103A50000020214618B060F31E01BDE8F08D08DAA1
:103A600018B02346BDE8F04D02460020614601F043
:103A700023BB18B02146BDE8F08D514518DAB5F1E9
:103A8000804F0DD0A5F1005CBCF1FF5C10D1B4F10A
:103A9000000C0DDB18B06146BDE8F04D00F062BED1
:103AA000234618B00246BDE8F04D194601F020BD8E
:103AB000060024F0004C3BD1D9B1514533D1002C44
:103AC00006DD002DA1BF0020514618B0BDE8F08DE5
:103AD000002C01DD002D1BDB002C13DA002D11DB87
:103AE000012A4FF0000014BF78497C4918B0BDE8A6
:103AF000F08D022A18BF002C0AD0012A08D1002C10
:103B000006DA0AE0002CB8BF002D11DA012A04D031
:103B1000002018B00146BDE8F08D18B000204FF02D
:103B20000041BDE8F08DA1F14050B0F17F601AD0A6
:103B3000012000EBE47050EA020421D0624C521ED6
:103B40004FF0000B104304BF4FF0000B644C65486E
:103B500083427CDD644A654893421FDD884217DB5F
:103B6000002D25DB37E0002C00DA4AB1022A0CBF19
:103B700001204FF0FF3018B0BDE8F04D01F051BC0E
:103B80000120FCF7F0FB18B0BDE8F04DFFF7A1BD38
:103B90004D4A8A4202DC002D0ADC1CE0814202DA36
:103BA000002D18DA04E0484B994220DD002D12DD8B
:103BB0000220FCF7D8FBFFF792FD05460E460022D7
:103BC00053465846214601F093FC18B066F31E0197
:103BD0002846BDE8F08D0220FCF7C5FBFFF786FD07
:103BE0000A46214618B062F31E01BDE8F08D00229E
:103BF0003046614601F0A2FE80460E466FF001029B
:103C000002F083FA4FF05532394B01F0A5FD4246E0
:103C1000334601F06DFC0022364B01F09DFD8246DB
:103C20004246334604911046194601F061FC524663
:103C3000049B01F05DFC8A4600904FF0C0422E4B81
:103C40004046314601F054FC2C4A2B4B00E027E063
:103C5000CDE906015146009801F04AFC82460191E7
:103C6000274A284B4046314601F042FC5246019B10
:103C700001F064FE82460B4602460591DDE906012D
:103C800001F05EF9DDE9062300268846304601F0A2
:103C900055FE5246059B01F05FFD024600F07EB9DD
:103CA0000020B1F5801F07DA35223046614602F068
:103CB0002CFA06466FF0340000EB215024E000009F
:103CC000FFFF1F00FFFF0F000000F03F0000F07F2C
:103CD0000000404301FCFFFF022900000000F0FF4C
:103CE0000000F0BF0000E0410000F043FFFFEF3FA5
:103CF0005555D53F0000E03F4715F73FFE822B6545
:103D000044DF5DF80BAE543EA0F2FF300190C1F3EA
:103D1000130040F07F6141F040510291FE4988421A
:103D2000D8BF002004DDFD498142C8BF012001DD6C
:103D30000D9008E000200D900198401C0190029821
:103D4000A0F5801002900299F54878440B910D99E6
:103D500000EBC100D0E900230F9330460A920B9983
:103D600001F0ECFDCDE90601DDE90A2130460F9BAB
:103D700001F0E6F802460B460020EA4901F09CF902
:103D8000059102460B460090DDE9060101F0B0FB0B
:103D90001490E5488A464FF000087844029900687C
:103DA00012904FF0005040EA61010D980F9B01EB1B
:103DB000804000F5002109910A9A129801F0BEFD99
:103DC00032460B9B01F0C8FC4246534601F090FB83
:103DD0000646029140465146099B129A01F088FB23
:103DE000DDE9062301F0B8FC3246029B01F0A6FD96
:103DF000059B009A01F07CFB0091149A04905346B5
:103E00001046194601F074FB06460246C7480B46A9
:103E1000029106217844FFF783FBCDE90510029B50
:103E200032461046194601F063FBDDE9053201F028
:103E30005FFB05910646534640461946149A01F029
:103E40007FF8009B049A01F053FB3246059B01F07A
:103E500077F8CDE90510424653461046194601F061
:103E600047FB0022B24B02910A9001F069F8DDE9AC
:103E7000053201F065F80E464246AD4B404601F072
:103E80005DFD029B0A9A01F059FDDDE9053201F062
:103E900063FC424602910A9033461046514601F0B7
:103EA00027FBCDE906015346149A02990A9801F0BE
:103EB0001FFB8A460290334642460099049801F05F
:103EC00017FB5346029A01F03BF882460B46024626
:103ED0000591DDE9060101F033F8DDE90623002054
:103EE0008846064601F02AFD5246059B01F034FC47
:103EF000824609914FF060428E4B3046414601F0B8
:103F0000F7FA049006918C4A8A4B5046099901F0C1
:103F1000EFFA82460291894A894B3046414601F0C8
:103F2000E7FA5246029B01F00BF8864B7B440D9A50
:103F300003EBC203D3E9002301F002F80E900791CE
:103F4000019801F06EFA0591DDE9061382460E9A9A
:103F5000049800F0F5FF7C4A7A440D9B02EBC30302
:103F6000D3E900230093029200F0EAFF5246059B3A
:103F700000F0E6FF0026884652463046059B01F0D9
:103F8000DDFC009B029A01F0D9FC069B049A01F02B
:103F9000D5FC079B0E9A01F0DFFB024600200B4682
:103FA00002903846294601F0A3FA824601912B4639
:103FB00038461946029A01F0C1FC3246434601F0E8
:103FC00097FA5246019B00F0BBFF07468A463246ED
:103FD00043462946029801F08BFA05460E463A46BA
:103FE000534600F0ADFF594A8846914221DBA8EBC9
:103FF000020353EA000210D12A46334601F09EFC28
:10400000CDE90401524A534B3846514600F098FF1F
:10401000DDE9042301F06AFB21D20220FCF7A3F9B9
:10402000FFF75DFB0A46214618B062F31E01BDE8AA
:10403000F08D494B28F000429A4210D3474A08EBD2
:10404000020353EA00027FF4C6AD2A46334601F06C
:1040500075FC3A46534601F049FB7FF6BCAD0022A1
:10406000019228F000403E493E4A01EB2051824235
:1040700023DA481C4FF4801121FA00F040443A4AF8
:10408000C0F30A517A44394BA1F2FF31CB4020EA08
:104090000303C0F3130040F48010C1F11401C840C1
:1040A00012680190B8F1000FBCBF40420190284651
:1040B000314601F043FC05460E462A463346384653
:1040C000514600F03DFF4FF000084246284B404665
:1040D000059101F00DFACDE90601264A264B40462E
:1040E000059901F005FA009102902A4633464046B0
:1040F000059901F023FC3A46534601F02DFB1F4A77
:104100001F4B01F0F5F9009B029A00F019FF0746DA
:10411000884602460B4635E08E9803007AB60B00BF
:104120001A2500000000F03F8225000080240000D6
:104130000000084009C7EE3FFD033ADCF5015B14BF
:10414000E02F3EBE582300001C23000000009040DA
:10415000FE822B654715973C00CC904000346F3FA2
:1041600001FCFFFF0000E03F98220000FFFF0F006E
:10417000432EE63F396CA80C615C20BEEF39FAFE95
:10418000422EE63FDDE9060100F0DAFEDDE9062316
:1041900005460E4601F0D2FB3A46434601F0DCFAF2
:1041A0000F462A46334600901046194601F0A0F902
:1041B000824602462E4888460B4605217844FFF782
:1041C000AFF95246434601F093F92A46334601F0CF
:1041D000C3FA80468A463B4628463146009A01F09B
:1041E00087F93B46009A00F0ABFE06910090002252
:1041F0004FF080434046514601F0A0FB0F460C9023
:10420000424653462846314601F072F93B460C9A25
:1042100000F052FF069B009A01F090FB2A463346BD
:1042200001F08CFB0022134B01F096FA0546019831
:104230000E4601EB00510815002810DC28463146D7
:10424000019A01F062FFFEF704FF042808BFFFF7A0
:104250004DFA28463146019A01F057FF05460B46B4
:1042600018B02A4658462146BDE8F04D01F040B945
:10427000082100000000F03F2DE9F041184C0F46E6
:104280000546E6682068001D00F00EFB38B920687E
:1042900090F82C1001208840216981432161681C1D
:1042A00007D137B12168BDE8F0410E48091D00F083
:1042B0003FBB20683544B5424560216805D2A06BFC
:1042C000BDE8F041091D00F01BBB606B091D00F04B
:1042D00017FBA06A854200D2A562BDE8F08100000C
:1042E0001C000020D00500202DE9F041054600F01B
:1042F0002BFB2E4CA068401CA06020682C4F10B1F6
:10430000606940B32DE02560A068012829D100260E
:1043100006EB860007EB800000F0E4FA761C072E1F
:10432000F6D323488C3000F0DDFA2148A03000F0AD
:10433000D9FA1F48B43000F0D5FA1D48C83000F053
:10434000D1FA1B48DC3000F0CDFA19488C3060639C
:104350001430A06305E02068E96AC06A884200D88A
:104360002560606A401C6062E96A01202269884019
:104370001043206101EB810007EB8000291D00F054
:10438000D7FA00F001FB606900280CD02068E96AC8
:10439000C06A884207D207494FF080500860BFF3D7
:1043A0004F8FBFF36F8FBDE8F08100001C0000202D
:1043B000F404002004ED00E010B5044690F851002C
:1043C00058B101280CD002280FD0502080F311885A
:1043D000BFF34F8FBFF36F8FFEE7206B00F0E8FA5B
:1043E0002046BDE8104000F0E3BA10BD10484FF47D
:1043F0004061420706D0C01D0D4920F00700411A58
:10440000C1F540610B4A00230144C2E900030839A9
:10441000183A21F0070111604B600B600B1AC0E9DC
:10442000001393604FF000405360506170470000EC
:10443000E405002070000020144E154CA6F1C807BA
:104440004FF08058DFF84C9012E000BF00F07CFA8B
:10445000F068C568281D00F027FAA068401EA0601B
:104460006068401E606000F08FFA2846FFF7A4FFE6
:1044700060680028EAD138680128F9D9C9F80080B5
:10448000BFF34F8FBFF36F8FF2E70000BC05002032
:104490001C00002004ED00E02DE9F0479A46DDE91C
:1044A000098481466FF00303206B03EB8202104402
:1044B000089E20F00707780707D0502080F3118866
:1044C000BFF34F8FBFF36F8FFEE7002561B1002070
:1044D00023180A5C83F834200A5C12B1401C1028AF
:1044E000F6D384F8435001E084F83450072E00D30B
:1044F0000626E662C4E91165201D00F0FEF904F10C
:10450000180000F0FAF92461C6F107006462A061A6
:10451000E56484F8505052464946384600F0C0F8E9
:104520002060B8F1000F01D0C8F80040BDE8F08766
:1045300030B5114900E011460A688242FBD34B684E
:104540005C18844203D140681844486008464368B8
:104550001C18944209D1084C183C2468A24209D086
:1045600052681A4442600A6812680260814200D0B0
:10457000086030BD0460F9E7700000200648416B18
:10458000096829B1416BC968C96849688162704787
:104590004FF0FF31FAE700001C0000200848406897
:1045A000401C4FF0500080F3118804D0BFF34F8FB0
:1045B000BFF36F8FFEE7BFF34F8FBFF36F8FFEE741
:1045C000780000202DE9F0410546002700F0D6FADA
:1045D000324E306808B9FFF709FF706905424ED1C5
:1045E000C5B3083568070ED005F00700C0F1080014
:1045F0000544680707D0502080F31188BFF34F8F20
:10460000BFF36F8FFEE72DB37068854237D823481C
:10461000183001460C6801E020460C466168A9424A
:1046200002D221680029F7D131688C4227D007686F
:104630002168016060680837411B10290FD9601993
:10464000420708D0502080F31188BFF34F8FBFF38B
:104650006F8FFEE713E041606560FFF769FF6168F7
:104660007068401A7060B268904200D2B0607069A1
:1046700001430020C4E90001F068401CF06000F034
:10468000CBFB780707D0502080F31188BFF34F8F02
:10469000BFF36F8FFEE73846BDE8F0815800002079
:1046A00010B5031F4FF080741C601B1F21F0010127
:1046B0001960191F024B0B60143940380A6010BD95
:1046C0009D45000800B5254B21F0004287B09A4275
:1046D00003DC0022134600922BE0214B9A4208D1C2
:1046E00040B94FF00100FBF73EFEFEF7F2FF07B0C6
:1046F00000BD03DBFEF7E8FF07B000BD02AAFEF72E
:10470000CDFC10F003014FF001000DD0012914D0B1
:1047100002291AD00DF1080C9CE80F00FEF782FE6A
:1047200007B081F0004100BD0DF1080C00909CE83D
:104730000F00FEF74BFF07B000BD0DF1080C9CE821
:104740000F00FEF76FFE07B000BD0DF1080C0090E2
:104750009CE80F00FEF73AFFE2E70000FB21E93F8B
:104760000000F07F2DE9F04106460F4601F000F809
:10477000041E0D4618BF0120284320F00040C0F160
:104780007F6000F1E040C00F0ED0301C18BF012048
:10479000384320F00040C0F17F6000F1E040C00FDE
:1047A00004BF0120FBF7DFFD20462946BDE8F0816C
:1047B00010B504460078FE280ED1A07AFD280BD152
:1047C0001749601C00F02EF8012805D01449601D1F
:1047D0000C3100F027F808B1012010BD607AC10942
:1047E0000F480176617AC1F380114176617AC1F395
:1047F00040118176617AC1F30011C176617AC1F30B
:10480000C0010177617AC1F380014177617AC1F318
:1048100040018177617A01F00101C177002010BD6C
:10482000E41100202DE9F0410C460146B0F90200E8
:104830006080B1F900104FF4FA722180914202D8E1
:1048400021B1904209D90120BDE8F081401CFAD184
:104850006080A06060600020F6E7FEF79DFF01F039
:1048600057F988460546FEF749FF07460E46B4F954
:10487000000000F0D6FD3A46334600F039FE00F065
:104880002DFB606028464146FFF71CFF06460D469B
:10489000B4F9000000F0C5FD32462B4600F028FEBA
:1048A00000F01CFBA060D6E7D0E9013201699A60F4
:1048B000D0E901235A604A68824201D182684A6085
:1048C000002202610868401E086008687047000006
:1048D000034B036003F154000860402010607047F0
:1048E0009000002000F108014FF0FF32C0E90112F2
:1048F000C1600161002101607047002101617047C2
:1049000030B50B685A1C02D000F1080202E00269BF
:1049100004E02246546825689D42FAD953684B60EA
:1049200099608A60516008610168491C016030BD6E
:1049300042684A6093688B6093685960916008612F
:104940000168491C01607047502080F31188BFF353
:104950004F8FBFF36F8F0A494868401C4860012899
:104960000CD10848006810F0FF0F07D0502080F3EA
:104970001188BFF34F8FBFF36F8FFEE770470000C2
:104980007800002004ED00E00849486828B1401E86
:10499000486001D180F311887047502080F311885E
:1049A000BFF34F8FBFF36F8FFEE70000780000204A
:1049B00070B500282AD0164DA0F108046068696916
:1049C000084207D1502080F31188BFF34F8FBFF307
:1049D0006F8FFEE722683AB1502080F31188BFF351
:1049E0004F8FBFF36F8FFEE78843606000F0C6F81B
:1049F00060686968084468602046FFF799FD286987
:104A0000401C2861BDE8704000F006BA70BD00008F
:104A1000580000204FF0E02000210161816105492C
:104A20004FF47A720968B1FBF2F1491E4161072126
:104A3000016170471800002010B5020014D00F4823
:104A4000006B38B1502080F31188BFF34F8FBFF354
:104A50006F8FFEE700F092F800211046FFF70CFC84
:104A600000F0DAF9002807D105494FF080500860BE
:104A7000BFF34F8FBFF36F8F10BD00001C000020ED
:104A800004ED00E070B50D4604000BD095B11E4A50
:104A9000106BB8B1502080F31188BFF34F8FBFF374
:104AA0006F8FFEE7502080F31188BFF34F8FBFF365
:104AB0006F8FFEE7502080F31188BFF34F8FBFF355
:104AC0006F8FFEE700F05AF8D268236859199342B5
:104AD00004D98B420AD9914202D807E08B42FAD915
:104AE000881A21600021FFF7C7FB00E0216000F079
:104AF00093F9002807D105494FF080500860BFF3B3
:104B00004F8FBFF36F8F70BD1C00002004ED00E0DD
:104B100010B586B00024039405AA04A903A8049440
:104B2000FFF7D6FEDDE903010094CDE90110002373
:104B30000EA11048059A00F0D8F80F490028C86265
:104B400011D0502080F31188BFF34F8FBFF36F8FC8
:104B50004FF0FF30886201204861CC6006B0BDE8AC
:104B6000104000F041B806B010BD000049444C456B
:104B700000000000394400081C0000200248016BBE
:104B8000491C0163704700001C0000201448016BA1
:104B900011B10121C16170470021C1610169B1FA00
:104BA00081F1C1F11F0101EB81020E4951F8223060
:104BB0006BB101EB820101F108034A6852684A6057
:104BC0009A4201D152684A60D16801607047502012
:104BD00080F31188BFF34F8FBFF36F8FFEE70000A4
:104BE0001C000020F40400201CB526490878019020
:104BF000FF20087008788DF800009DF800009DF8EF
:104C0000002000F0F000904207D0502080F311887F
:104C1000BFF34F8FBFF36F8FFEE79DF800001A4C74
:104C200000F0500020700720A06005E09DF80020F3
:104C300052008DF80020401E9DF800201206F5D489
:104C4000A060032807D0502080F31188BFF34F8F56
:104C5000BFF36F8FFEE74FF44070A06001980870BB
:104C60000A48016841F470010160016841F0704137
:104C70000160FFF7CFFE00206060FBF7B9FA00206B
:104C80001CBD000000E400E07800002020ED00E002
:104C90002DE9FF5F8346DDE90E87994616468A4671
:104CA0009000FFF78FFC05001CD05420FFF78AFC12
:104CB000040014D00020256384F85100CDE902409F
:104CC000CDE900874B46324651465846FFF7E4FB94
:104CD0002046FFF709FB012004B0BDE8F09F2846FD
:104CE000FFF766FE4FF0FF30F6E7F0B585B0DDE97F
:104CF0000B640A9DA6B1DCB15427009726630226F7
:104D000084F85160002604AFCDE90246CDE9005792
:104D1000FFF7C2FB2046FFF7E7FA049805B0F0BDA5
:104D2000502080F31188BFF34F8FBFF36F8FFEE7E2
:104D3000502080F31188BFF34F8FBFF36F8FFEE7D2
:104D40000148C068704700001C0000202DE9F041B8
:104D50002F4C0026206B28B1A069401CA061304672
:104D6000BDE8F081E5686D1CE56013D1606B0068FB
:104D700038B1502080F31188BFF34F8FBFF36F8F8E
:104D8000FEE7606BA16B6163A063206A401C206238
:104D9000FFF7F4FBA06ADFF87C80854209D3606BE3
:104DA0000068A0B1606BC068C7687868854211D29E
:104DB000A0622068C06A00EB800158F82100012839
:104DC00000D90126E0690028C9D00126C7E74FF0C5
:104DD000FF30EDE7381DFFF767FDB86A18B107F13E
:104DE0001800FFF761FDF96A01202269884010432D
:104DF000206101EB810108EB8100391DFFF798FD6F
:104E0000F86A2168C96A8842C9D30126C7E7000049
:104E10001C000020F40400202DE9F0472C4D002454
:104E20002746286B38B1FFF78FFD286B401E28639B
:104E3000286B40B146E0502080F31188BFF34F8FBC
:104E4000BFF36F8FFEE7A968224E0120D1B3A6F110
:104E5000B40980463068E8B1F068C46804F118000D
:104E6000FFF722FD201DFFF71FFDE06A2A6908FAFF
:104E700000F11143296100EB800109EB8100211D44
:104E8000FFF756FDE06A2968C96A8842E2D3C5F88F
:104E90001C80DFE70CB1FFF771FBAC6944B14646FB
:104EA000FFF754FF00B1EE61641EF9D10020A86144
:104EB000E86938B10849012738070860BFF34F8F08
:104EC000BFF36F8FFFF760FD3846BDE8F087000045
:104ED0001C000020A805002004ED00E021F00042A5
:104EE000A2F16052B2F5801F01F0004328BFD2F159
:104EF0007F6C0BD95FEA001C43EAC20242EB5070A0
:104F000018BF704728BF20F001007047B2F5801F1E
:104F1000BCBF184670474FEA410C1CF5001F02D277
:104F2000084601F046B870B500F08CFB000000891F
:104F3000FFF7F6BF4FF00040A0F58000704700007B
:104F400010B591EA030F48BF83F0004300F1FE84DF
:104F5000841A71EB030C05D2121943EB0C03001BEE
:104F600061EB0C01DFF824E14FEA1154A4EB135C70
:104F70001EEA430F18BF9EEA445F73D023EA0E0374
:104F8000DCF1200E21EA045143F4801332D322FADB
:104F90000CFE10EB0E0023FA0CFE41EB0E01CCF1DF
:104FA000200E03FA0EFE10EB0E0051F10001B1F5D8
:104FB000801FCCF1200E32D201EB045112FA0EF216
:104FC000BDE8104058BF7047401C38BF5FEA42023E
:104FD00018BF7047002814BF20F0010041F1000104
:104FE0004FEA410313F5001F38BF7047A1F1C041DC
:104FF00000F076BB012A43EB0302ACF1200CDCF19C
:105000001F0E32BF4FF0000E23FA0CF310EB03001B
:1050100041EB0451B4EB115FD0D0A1EB045101F589
:10502000801149085FEA300001EB04510ED350F1C2
:10503000000038BF12FA0EFE08D1BDE81040C9E7E3
:10504000401C38BF5FEA4202CAD1C3E7BDE8104046
:105050004FEA410313F5001F38BF7047A1F1C0416B
:1050600000F03EBB9EEA445F08D011EA5E0FBDE847
:10507000104004BF01F0004100207047BDE810401F
:1050800070B500F0DFFA00BF64FBBE3E0000E0FF39
:1050900002494FF0000001F006B800BF0000F87FA1
:1050A000491058BFC1F140415B1058BFC3F14043A4
:1050B0008B42EFF3008070472DE9C04130B4DFF838
:1050C000A0C23CEA111418BF3CEA131400F0EC80B3
:1050D00081EA03051CEA111444EAD57418BF1CEADE
:1050E000131500F0C780A4EB05044FF0004545EA16
:1050F000C12145EAC32341EA505143EA525304F126
:105100007F74994204F500344FEAC0204FEAC2226E
:1051100008BF904200F09C804FEA13650FF24016E2
:10512000765D4FEA134506FB05F7C7F1807706FB6E
:1051300007F74FEAD737A7FB03687642C8F58038F0
:10514000A7FB06CE38BFA8F1010807FB08E64FF021
:10515000000EA6FB028CE6FB03CEDCF1000CCEF1C8
:10516000004E38BFAEF1010EA6FB0C584FF0000701
:105170004FF00005E6FB0E87A1FB08C6A0FB07CE9B
:1051800016EB0E0645F10005E1FB076515F1E04E53
:105190007EBFA4F580345FEA46066D4116F18007B4
:1051A00045F100054FEA17274FEA066647EA05670B
:1051B000A6F1DE46B6F1805F4FEA15251FD93846C5
:1051C00024F0010C05EBC471BCF1FE6F01EB0C1176
:1051D00002D8F0BCBDE8008124425CBF01F5801E0E
:1051E0009EEAC47F02D4F0BCBDE80081244238D4DA
:1051F000F0BCA1F1C041BDE8004100F071BA4FEA36
:10520000D22242EA43524FEAD323A7FB02864FEA57
:10521000D02040EA415007FB03661EEA0E0F4FEA1A
:10522000D12105FB026658BFA6EB0056B6EB00562F
:105230004FEA520E4EEAC37E18EB0E0E56EB530E9B
:10524000BDD518EB02085E417F1C55F10005B6E79D
:105250004FF480154FF000074FF000064FF00008A4
:10526000ADE7F0BC4FF0000001F1C04101F000419A
:10527000BDE8008111EA0C1F0CEA131500D00CE008
:1052800013EA0C1F00F025804FF00000F0BC81EA0B
:10529000030101F00041BDE80081F0BCBDE8004120
:1052A00081EA030100F01CBAF0BCBDE8004170B512
:1052B00000F0C8F9097EFC3E00F007B881EA03015E
:1052C0004FF0000001F00041704781EA030100F057
:1052D00007BAF0BCBDE800414FF00000214970471B
:1052E000FFFDFBF9F7F5F4F2F0EEEDEBE9E8E6E4AB
:1052F000E3E1E0DEDDDBDAD8D7D5D4D3D1D0CFCD32
:10530000CCCBCAC8C7C6C5C4C2C1C0BFBEBDBCBB6A
:10531000BAB9B8B7B6B5B4B3B2B1B0AFAEADACAB65
:10532000AAA9A8A8A7A6A5A4A3A3A2A1A09F9F9E3F
:105330009D9C9C9B9A9999989797969595949393F1
:10534000929191908F8F8E8E8D8C8C8B8B8A898988
:10535000888887878685858484838382828181800B
:105360000000FF070000F87F4FEA41034FEA535364
:10537000A3F58063D3F11E03C8BFD3F1210C0CDD6C
:105380004FF0004242EAC12242EA505232FA03FC94
:105390008CEAE17CACEBE1707047102BC4BF0020BD
:1053A000704703F5787CBCF1FF3F04D06FF00042FA
:1053B00082EA2100704770B500F044F949922480D8
:1053C00000207047F2E700004FEA1153A3F5806315
:1053D000D3F11E03A8BFD3F1200C08DB4FF000422D
:1053E00042EAC12252EA505232FA03F070470942AF
:1053F0000BD4102BC4BF0020704703F5787CBCF1A0
:10540000FF3F05D04FF0FF3070474FF0000070476E
:1054100070B500F017F900BF499224800020704752
:10542000F0E710F0004248BF4042B0FA80F310FAB3
:1054300003F10AD0C3F11D0303F580634FEA415025
:1054400002EB035202EBD12170474FF0000070478E
:10545000B0FA80F310FA03F10AD0C3F11D0303F58B
:1054600080634FEA41504FEA035202EBD12170476B
:105470004FF000007047000051EA030C17D41CF5F0
:10548000801F58BFBCF5801F00F10680994218BFED
:10549000704708BF9042704707D711F5801F58BF6B
:1054A00013F5801F19D499427047894270471CF543
:1054B000801F08D5BCF5801FF7D58B4218BF7047F9
:1054C00008BF824270474FF4001C1CEB410F38BFED
:1054D0001CEB430F01D28B42704770B500F0B2F85D
:1054E000922449004FF000514FF08053FFF7D8BD90
:1054F000DFF848C170B51CEA111E1EBF1CEA131567
:105500009EEA0C0F95EA0C0F00F06F8081EA03040D
:1055100023EA4C134EEAD47E21EA4C1141F4801167
:1055200043F48013AE44A1FB024CA0FB0365AEF133
:105530007F7E361955EB0C05A1FB034C4CF10003A3
:10554000A0FB021C16EB0C06654153F10003094257
:1055500018BF46F0010613F4007F0BD14FEA033168
:105560004FEA0530340341EA155140EA16506FF016
:1055700003020AE04FEAC3214FEAC520F40241EAE0
:10558000555140EA56506FF0020202EB2E4201EBF9
:10559000025585EACE710AD05FEA440C18BF24F0A8
:1055A000004450F1000041F1000120EAD47040F2C3
:1055B000FE7C624500D270BDA84214BF4FF080440B
:1055C0004FF04044002E08BF0024BEF1806FA8BFFA
:1055D000A1F1C041BDE8704080F282804FF0000030
:1055E00001F1C04101F0004170479EEA0C0F0CEA46
:1055F000131518BF95EA0C0F06D04FF0000081EA92
:10560000030E0EF0004170BD00F01CF88900013E51
:1056100000F007B800F009B84FEA430C5FEA5C5CA1
:1056200008D081EA030100F05BB84FEA410C5FEA61
:105630005C5CF6D14FF00000014970470000FF07A5
:105640000000F87F0EF1020E2EF0030E5EF8046BE0
:10565000364205D4012A43EB030515F5001F12D885
:10566000012841EB010C1CF5001F0CD80ED14FEAAC
:10567000D17C15F5001F0CEB4C0C0CF1020C08BF93
:105680004CEBD37C04E04FF0080C01E04FEAD37CF4
:105690000CEB4C0526FA05F606F00706B6F1040CED
:1056A00006D20EEB860CBDE870404CF0010C604752
:1056B000DFE80CF0090B02024FF000414FF0000050
:1056C000A1F5002170BD19461046012851EB0104D7
:1056D00018BFD4F5001484BF002001F0004170BD54
:1056E0000808A0F500114FEA3101704753EA010C98
:1056F00017D41CF5801F58BFBCF5801F00F1068031
:105700008B4218BF704708BF8242704707D713F516
:10571000801F58BF11F5801F19D48B4270479B42E0
:1057200070471CF5801F08D5BCF5801FF7D599423E
:1057300018BF704708BF904270474FF4001C1CEB25
:10574000430F38BF1CEB410F01D2994270470FB491
:105750000CBC03BCFFF7C1BE91EA030F10B581F08A
:1057600000413FF5F5AB83F0004300F0EFB80000D7
:105770002DE9F04101F5801CBCF5001FC0F2C3808B
:105780004FEA115C21EA0C510CF1FD0C41F480113F
:105790005FEA5C0C0CF5C07C01D3400049413DA49C
:1057A000890241EA905187028E0E0A0CA45D04FB27
:1057B00004F602FB06F6C6F14046A4FB0662F60DAF
:1057C00046EA422606FB06F4A4FB01235242C3F13B
:1057D000404338BF5B1EA6FB02420024E6FB0324C5
:1057E000D20B42EA4446A6FB0623A1FB02E2A3FB3E
:1057F00007E4A4184FF0000252F10002E3FB01425B
:105800006442C2F1404E38BFAEF1010EA6FB042344
:105810004FF00002E6FB0E32A2FB03464FF00004FD
:10582000B61954F10004E2FB0264A1FB06E6A4FBF6
:1058300007E816EB08064FF0000858F10008E4FBF3
:1058400001687642C8F1405838BFA8F10108A2FBB0
:1058500006E4A3FB08E52D194FF0000454F1000401
:10586000E2FB0854A1FB05E6A7FB04E818EB0608D9
:105870004FF0000656F10006E1FB048618F1200502
:1058800056F10006A809A8F11B08B10908F03F0865
:10589000B8F10A0F40EA86601CD901EB0C51BDE853
:1058A000F08100BFFCF5EEE8E2DDD8D3CFCBC7C373
:1058B000C0BDB9B6B4B1AEACA9A7A5A3A19F9D9B2D
:1058C0009A9896959392908F8D8C8B8988878685F0
:1058D00084838281A0FB006800FB01F208EB420890
:1058E000B8EB872807D5341858EB0104D5D5401CF0
:1058F00051F10001D1E7341A78EB0104CDD4401EF8
:1059000071F10001C9E75FEA4C0C5FEA9C5C0DD1C4
:1059100005D34FF0000001F00041BDE8F081BDE883
:10592000F04170B5FFF78EFE6DDBFFBEBDE8F041C4
:105930004FF00000004970470000F87F10B591EA71
:10594000030F48BF83F000433FF502AB841A71EBAD
:10595000030C07D212198CF0004C43EB0C03001B14
:1059600061EB0C01DFF8A4E14FEA1154A4EB135CE6
:105970001EEA430F18BF9EEA445F00F0B08023EA9E
:105980006E03524221EA0451C3EB6E0338BF5B1E23
:10599000DCF1200E25D322FA0CFE10EB0E0043FAA8
:1059A0000CFE41EB0E01CCF1200E03FA0EFE10EBC3
:1059B0000E0051F10001CCF1200E29D412FA0EF2A2
:1059C00001EB0451BDE8104058BF7047401C1CBF9C
:1059D000B2F1004F704700280CBF491C20F00100B5
:1059E000704712EB020E43EB030218BF4FF0010E9B
:1059F0004EEA4202ACF1200CDCF11E0E54D943FAFF
:105A00000CFE10EB0E0051F1FF31CCF11E0ED5D57E
:105A10000EF1010E12FA0EFE404141EB010101EBC5
:105A2000445C5FEA5C5C10D910EBDE7001EB045162
:105A300038BFBEF1004FBDE8104018BF70470028C6
:105A40000CBF491C20F00100704730D24FEAD42C23
:105A500011F5001124F400641BD0B1FA81F20B3A65
:105A6000A41AA41ED2F12003914030FA03F3194383
:105A7000904001EBCC71002C01EB0451BDE81040CB
:105A8000A8BF704701F1C0414FF0000001F0004194
:105A90007047B0FA80F310FA03F100D110BDE41A98
:105AA000173C4805C90AE4E701EB045110BD491051
:105AB00001EB0451BDE810404FEA300002E04FF026
:105AC000000170474A0008BF0042F8D0B2F5001F3D
:105AD00028BF704701F000414FF0000070479EEA78
