:020000040800F2
:10000000481600206502000843190008F116000890
:1000100041190008CF0300086D1E00080000000011
:10002000000000000000000000000000CD010008FA
:10003000D10300080000000011020008591900084F
:100040007F0200087F0200087F0200087F0200088C
:100050007F0200087F0200087F0200087F0200087C
:100060007F0200087F0200087F0200087F0200086C
:100070007F0200087F0200087F0200087F0200085C
:100080007F0200087F0200087F0200087F0200084C
:100090007F0200087F0200087F0200087F0200083C
:1000A0007F0200087F0200087F0200087F0200082C
:1000B0007F0200087F0200087F0200087F0200081C
:1000C0007F0200087F0200087F0200087F0200080C
:1000D0007F020008611E00087F0200087F020008FE
:1000E0007F0200087F0200087F0200087F020008EC
:1000F0007F0200087F0200087F0200087F020008DC
:100100007F0200087F0200087F0200087F020008CB
:100110007F0200087F020008E5190008F1190008B5
:100120007F0200087F0200087F0200087F020008AB
:1001300000F002F800F03AF80AA090E8000C8244BF
:100140008344AAF10107DA4501D100F02FF8AFF29C
:10015000090EBAE80F0013F0010F18BFFB1A43F0A5
:10016000010318475028000070280000103A24BFEF
:1001700078C878C1FAD8520724BF30C830C144BF0C
:1001800004680C607047000000230024002500264E
:10019000103A28BF78C1FBD8520728BF30C148BFEA
:1001A0000B6070471FB51FBD10B510BD00F0D6F82D
:1001B0001146FFF7F7FF01F06AFE00F0F4F803B410
:1001C000FFF7F2FF03BC00F0FBF80000224B1968B8
:1001D0000868B0E8F00F80F30988BFF36F8F4FF025
:1001E000000080F311884EF00D0E704700000000F3
:1001F00006480068006880F3088862B661B6BFF3FD
:100200004F8FBFF36F8F00DF00BF00BF08ED00E02E
:10021000EFF30980BFF36F8F0F4B1A6820E9F00FDF
:10022000106008B54FF0500080F31188BFF34F8F76
:10023000BFF36F8F02F0CAF94FF0000080F311880E
:10024000BDE8084019680868B0E8F00F80F3098835
:10025000BFF36F8F704700BF1C000020EFF30580D5
:10026000704700000948804709480047FEE7FEE75D
:10027000FEE7FEE7FEE7FEE7FEE7FEE7FEE7FEE756
:1002800004480549054A064B70470000E319000879
:1002900031010008481000204816002048120020B4
:1002A0004812002010B5203AC0F00B80B1E8185079
:1002B000203AA0E81850B1E81850A0E81850BFF450
:1002C000F5AF5FEA027C24BFB1E81850A0E81850EF
:1002D00044BF18C918C0BDE810405FEA827C24BF43
:1002E00051F8043B40F8043B08BF7047D20728BFD1
:1002F00031F8023B48BF11F8012B28BF20F8023B20
:1003000048BF00F8012B70474FF0000200B51346BC
:1003100094469646203922BFA0E80C50A0E80C5025
:10032000B1F12001BFF4F7AF090728BFA0E80C50D6
:1003300048BF0CC05DF804EB890028BF40F8042BCF
:1003400008BF704748BF20F8022B11F0804F18BF3C
:1003500000F8012B7047704770477047754600F0F2
:100360002BF8AE4605006946534620F00700854647
:1003700018B020B5FFF784FFBDE820404FF000061D
:100380004FF000074FF000084FF0000B21F007017D
:10039000AC46ACE8C009ACE8C009ACE8C009ACE8C0
:1003A000C0098D46704710B50446AFF30080204663
:1003B000BDE81040FFF703BF00487047E80F00207A
:1003C00001491820ABBEFEE7260002007047FEE799
:1003D000704772B6FEE710B590F82110002202298E
:1003E00005D00421816380F82020012010BD016820
:1003F0000B6823F00E030B6001680B6823F0010308
:100400000B6090F84030C46B012101FA03F3636084
:1004100080F8211080F82020104610BD2DE9F05FF3
:1004200090F821100024022903D0042181630124C3
:1004300085E001680A6822F00E020A6001680A6815
:1004400022F001020A603F4E3E4FB215DFF8F4C0C1
:10045000DFF8F090DFF8ECA0DFF8E8B0DFF8E4E0D8
:100460000168783F13011502ACF1640CA9F1500941
:10047000AAF13C0AABF1280BAEF1140E4FF4801830
:10048000B14227D9B9420ED0614512D049451DD09D
:10049000514518D0594518D0714501D1424615E053
:1004A000294EB14201D1012210E0274E1436B1424B
:1004B00001D110220AE0244E2836B14206D0224A49
:1004C0003C32914201D11A4600E02A461E49091FDA
:1004D0000A602BE0B94213D0614517D0494522D0BC
:1004E00051451DD059451DD0714501D142461AE0F4
:1004F000B14202D14FF0807215E0134EB14201D1EA
:10050000012210E0104E1436B14201D110220AE04F
:100510000D4E2836B14206D00B4A3C32914201D1F1
:100520001A4600E02A46074980394A60012180F8CE
:100530002110002180F82010416B01B1884720462E
:10054000BDE8F09F80000240080402402DE9F84F0A
:10055000DFF8C8910024A9F1040B23460F2709F105
:10056000040AABF1040ED1E00125A54006EA05021C
:10057000AA4276D1DFF8A8C14E68A6EB0C08664502
:100580002BD00DDC032E34D005DC36B3012E19D070
:10059000022E2FD11BE0112E16D0122E2AD119E0D7
:1005A000B8F5881F19D006DCB8F5803F15D0B8F52E
:1005B000801F1FD111E0B8F5001F0ED0B8F5041F41
:1005C00018D10AE0CB6815E0CB681B1D12E0CB68A0
:1005D00008330FE0CB680C330CE08B682BB1012B98
:1005E0004FF0080303D0456104E0042302E00561F5
:1005F00000E00023FF2A01D8064601E000F10406CE
:100600004FEA840501D9A5F12005D6F8008007FA44
:1006100005FC28EA0C0803FA05F548EA0508C6F8BF
:1006200000804D68ED0070D53E4DAE6946F0010684
:10063000AE61AD6924F0030605F0010500953A4D61
:1006400006EB050CDCF80850A607360F07FA06F88B
:1006500025EA0805DFF8D480404503D14FF00008B3
:1006600025E052E0DFF8C880404502D14FF0010894
:100670001DE0DFF8C080404502D14FF0020816E0CF
:10068000DFF8B480404502D14FF003080FE0DFF8F7
:10069000AC80404502D14FF0040808E0DFF8A080AC
:1006A000404502D14FF0050801E04FF0060808FA76
:1006B00006F848EA0508CCF808804D68D9F80060CB
:1006C000ED024D4601D5164300E096432E604D687D
:1006D000DAF80060AD02554601D5164300E09643B6
:1006E0002E604D68DBF80060AD035D4601D5164312
:1006F00000E096432E604D68DEF80060ED0375461D
:1007000001D5164300E096432E60641C0A68164625
:10071000E2407FF429AFBDE8F88F000008040140F3
:1007200000001110001002400000014000080140CC
:10073000000C01400010014000140140001801406D
:10074000001C01400AB1016170470904FBE7000089
:1007500001488068704700000C0000200248816852
:1007600002781144816070470C000020074810B5E2
:10077000016841F010010160032000F0A7F80F208C
:1007800000F006F800F050F8002010BD00200240F4
:1007900030B505461F4887B0C16941F02001C161ED
:1007A000C06906A900F02000009001A800F036F909
:1007B0000498B0B100F052F940001749174AB0FB55
:1007C000F1F11748491E0260416040F2E732002112
:1007D000C0E903218160816100F080FB040003D047
:1007E00015E000F03BF9E8E70D4800F0CFFB04000E
:1007F0000DD1372000F03CF8102D07D200222946F9
:10080000372000F043F80748056000E0012407B0F6
:10081000204630BD0010024040420F00001400404E
:10082000B0020020100000200F4808B5816941F097
:1008300001018161816901F001010091C16941F00B
:100840008051C161C069002200F0805000900F21EA
:10085000901E00F01BF80548416821F0E06141F06E
:100860000071416008BD000000100240000001401E
:10087000002809DB00F01F0201219140400980009F
:1008800000F1E020C0F8001170470000F0B40E4BFA
:100890001B680C46C3F30223C3F10705042D00D9DE
:1008A0000425191D072901D2002300E0DB1E0126C3
:1008B00006FA05F1491E214099409E40761E1640D9
:1008C0003143F0BC01F0D3BA0CED00E0064900F072
:1008D000070208684FF6FF03184040EA0220034A67
:1008E00010430860704700000CED00E00000FA05BE
:1008F0002DE9F0470F46050061D0434E306800F007
:100900000700B84209D2306820F007003843306051
:10091000306800F00700B84251D128683B4C81078D
:1009200012D5400703D5606840F4E0606060287825
:10093000000703D5606840F4605060606068A96893
:1009400020F0F000084360602878C00728D068686D
:10095000012810D02168022810D0890700292EDA3A
:10096000616821F0030101436160FFF7F1FE8046F9
:1009700041F288390DE021688903EFE78901EDE74D
:10098000FFF7E6FEA0EB0801494502D90320BDE8C8
:10099000F0876068696800F00C00B0EB810FEFD160
:1009A000306800F00700B8420BD9306820F007002B
:1009B00038433060306800F00700B84201D00120B1
:1009C000E5E72878400705D56068E96820F4E0602D
:1009D000084360602878000706D56068296920F41C
:1009E000605040EAC100606000F058F86168084A51
:1009F000C1F30311515CC84006490860064800680D
:100A0000FFF7C6FE0020C2E70020024000100240AF
:100A10007629000818000020100000200F22026034
:100A20000C4A536803F003034360536803F0F00378
:100A30008360536803F4E063C36052684FF4E0637B
:100A400003EAD20202610448006800F0070008606F
:100A50007047000000100240002002400448054991
:100A600000684968044AC1F30221515CC8407047DC
:100A7000180000200010024086290008044805499B
:100A800000684968044AC1F3C221515CC8407047FC
:100A90001800002000100240862900080E4A516804
:100AA0000E4801F00C03042B11D0082B0FD10C4879
:100AB000C1F38343C903C05C0AD55168084AC1F336
:100AC0004041921E515C054A5043B0FBF1F0704723
:100AD00004494843704700000010024000127A00A9
:100AE0006629000800093D002DE9F84F040070D088
:100AF0002078C04DC00749D06868C0F38100012844
:100B000007D06868C0F38100022809D16868C00373
:100B100006D52868800339D560680028E7D035E01D
:100B20006068B0F5803F0BD010B1B0F5A02F11D0A8
:100B3000286820F480302860286820F4802002E0B3
:100B4000286840F480302860606890B1FFF700FEAC
:100B500006460AE0286840F480202860F0E700BFDD
:100B6000FFF7F6FD801B642873D828688003F7D54B
:100B70000CE0FFF7EDFD064605E000BFFFF7E8FDDE
:100B8000801B6428F0D828688003F7D420789A4E18
:100B900080074FF001094FF0000839D5686810F060
:100BA0000C0F07D06868C0F38100022809D168687B
:100BB000C00306D42868800714D52069012808D10D
:100BC00010E02069B0B1C6F80090FFF7C1FD0746FC
:100BD00005E00AE1FFF7BCFDC01B0228C4D8286865
:100BE0008007F7D52868616920F0F80040EAC10065
:100BF00028600DE0C6F80080FFF7AAFD074604E074
:100C0000FFF7A6FDC01B022823D828688007F7D469
:100C1000207800072CD57948A169D9B1C0F8009097
:100C2000FFF796FD074604E0FFF792FDC01B022880
:100C30000FD8686A8007F7D571484FF4FA510068F9
:100C4000B0FBF1F0009000BF0098411E0091FAD275
:100C50000EE080E0C0F80080FFF77AFD074604E070
:100C6000FFF776FDC01B022875D8686A8007F7D4A5
:100C70002078400760D5E8690027C00008D4E869FB
:100C800040F08050E861E869012700F08050009052
:100C90005C480168C90513D40168834641F480713A
:100CA0000160FFF755FD824606E000BFFFF750FDEB
:100CB000A0EB0A0064284ED8DBF80000C005F5D58B
:100CC000E06801280AD008B1052813D0286A20F06E
:100CD00001002862286A20F0040002E0286A40F03F
:100CE00001002862E06841F2883B98B1FFF730FDCF
:100CF00082460BE0286A40F004002862EEE700BF5D
:100D0000FFF726FDA0EB0A0159455AD8286A80074B
:100D1000F6D50CE0FFF71CFD824605E0FFF718FD55
:100D2000A0EB0A0159454CD8286A8007F6D41FB1B8
:100D3000E86920F08050E861E06988B36968C1F330
:100D40008101022944D00228C6F8608004D0FFF750
:100D5000FFFC044638E034E0FFF7FAFC074604E005
:100D6000FFF7F6FCC01B02282BD828688001F7D4B7
:100D7000206AB0F5803F05D16868A16820F4003092
:100D800008436860D4E908010843696821F47411D4
:100D900008436860C6F86090FFF7DAFC044606E096
:100DA00025E000BFFFF7D4FC001B022809D8286803
:100DB0008001F7D51BE000BFFFF7CAFC001B02282B
:100DC00002D90320BDE8F88F28688001F4D40EE032
:100DD0000128F7D06868226A00F48031914204D17A
:100DE000616A00F47010884201D00120EAE7002017
:100DF000E8E7000000100240000042428004424246
:100E000018000020007000407047704710B590F83F
:100E10003C20012A22D0012280F83C20CA688C683C
:100E200022F4407222434C6822F4806222430C6810
:100E300022F4006222430C6922F4805222434C695E
:100E400022F400522243C969002322F480420A435B
:100E500001684A6480F83C30002010BD022010BDBB
:100E600070B590F83C20012A2CD0012480F83C4039
:100E7000022280F83D2003685A689D6822F07006BF
:100E80000A6832435A60104B02689A420ED00F4BE8
:100E90009A420BD0B2F1804F08D00D4B9A4205D048
:100EA0000C4B9A4202D00C4B9A4204D1496825F06F
:100EB00080031943916080F83D40002180F83C1088
:100EC000084670BD022070BD002C01400034014076
:100ED0000004004000080040000C004010B5040071
:100EE00003D094F83D0010B107E0012010BD0020B0
:100EF00084F83C00204600F01FF8022084F83D00F2
:100F0000211D206800F07AFD012084F8460084F855
:100F10003E0084F83F0084F8400084F8410084F8E3
:100F2000420084F8430084F8440084F8450084F8C3
:100F30003D00002010BD000008B5114A01681148AD
:100F4000914211D1C16941F01001C161C069002213
:100F500000F01000009006213620FFF797FCBDE856
:100F600008403620FFF784BC074A914207D18169C7
:100F700041F400518161806900F40050009008BD87
:100F800000100040001002400034014090F83D1075
:100F9000012901D001207047022180F83D1001682D
:100FA000CA6842F00102CA6000680E4988420ED049
:100FB0000D4988420BD0B0F1804F08D00B498842D0
:100FC00005D00B49884202D00A49884204D1816881
:100FD00001F00701062903D0016841F00101016019
:100FE00000207047002C0140003401400004004004
:100FF00000080040000C004070B5044690F83C002A
:101000000025012817D0012684F83C60022084F8CE
:101010003D002068826822F0770222F47F428260DD
:101020000868502838D00DDC20284FD005DC90B35C
:10103000102811D14AE0022070BD302846D0402847
:101040000AD13BE060282FD070280DD0B0F5805F2A
:1010500003D0B0F5005F12D0012584F83D60002078
:1010600084F83C00284670BDCB68D1E90121206896
:1010700000F012FD2068816841F0770109E0CB683B
:10108000D1E90121206800F007FD2068816841F462
:1010900080418160E1E719E0CA684968206800F092
:1010A000CFFD5021206806E0CA684968206800F03A
:1010B000D8FD6021206800F0F9FCCEE7CA684968D5
:1010C000206800F0BDFD40212068F4E72268014659
:1010D0001046F0E770472DE9F04104460068C66805
:1010E00005694FF00007A90713D5B10711D5F91EFF
:1010F000016101202077206880698007204602D0A6
:10110000FFF7E8FF04E000F0A5F8204600F037F90B
:101110002777680716D5700714D521686FF004008B
:101120000861022020772068806910F4407F204603
:1011300002D0FFF7CFFF04E000F08CF8204600F06B
:101140001EF92777280715D5300713D521686FF0CA
:1011500008000861042020772068C06980072046C5
:1011600002D0FFF7B7FF04E000F074F8204600F06B
:1011700006F92777E80616D5F00614D521686FF032
:1011800010000861082020772068C06910F4407FB3
:10119000204602D0FFF79EFF04E000F05BF82046F7
:1011A00000F0EDF82777E80708D0F00706D02168AF
:1011B0006FF001000861204600F0E2F8280608D52B
:1011C000300606D521686FF0800008612046FFF7E1
:1011D0001BFE680608D5700606D521686FF0400032
:1011E0000861204600F0D6F8A8060AD5B00608D552
:1011F00021686FF0200008612046BDE8F041FFF74C
:1012000004BEBDE8F081000000B585B0002100916A
:1012100001910291039100680B49884212D10B4859
:10122000816941F0100181618069694600F0100018
:1012300004904FF4707000900220019003900448D5
:10124000FFF784F905B000BD0034014000100240F2
:1012500000100140704770B5044690F83C0000262D
:101260000D4601280FD0012084F83C006AB1042A01
:101270001DD0082A2FD00C2A3FD00126002084F848
:101280003C00304670BD022070BD206800F016FCA6
:101290002068816941F0080181612068816921F03D
:1012A00004018161206881692A69114311E0206885
:1012B00000F034FC2068816941F40061816120689C
:1012C000816921F480618161206881692A6941EA2C
:1012D00002218161D2E7206800F056FC2068C169D4
:1012E00041F00801C1612068C16921F00401C161B8
:1012F0002068C1692A69114311E0206800F078FC78
:101300002068C16941F40061C1612068C16921F4AC
:101310008061C1612068C1692A6941EA0221C16115
:10132000ACE710B5040003D094F83D0010B107E01D
:10133000012010BD002084F83C00204600F01EF87B
:10134000022084F83D00211D206800F057FB012099
:1013500084F8460084F83E0084F83F0084F840009A
:1013600084F8410084F8420084F8430084F8440083
:1013700084F8450084F83D00002010BD7047704798
:1013800000680349884201D1FFF7E8B970470000BF
:10139000001400407047704770470000F8B50168BE
:1013A00004460868CA684B6910F00F0F4FF000053B
:1013B00059D003F0010602F49077374365D0C10796
:1013C00005D0D10503D5616C41F00101616441078D
:1013D00005D5D90703D0616C41F002016164810732
:1013E00005D5D90703D0616C41F0040161640107A0
:1013F00007D502F02001314303D0616C41F00801B0
:101400006164616C00293AD0800604D5900602D54B
:10141000204600F067FC20684069616CC0F38010D2
:10142000090700D460B3204600F035FC206840690D
:10143000400621D52068143050E8001F21F04001FB
:1014400040E80012002AF5D1E06BA8B16D49416374
:10145000E06BFEF7E3FF002811D0E06B416B01B0B9
:10146000BDE8F040084783060FD593060DD520460A
:10147000BDE8F84000F036BC2046FFF78DFFF8BD10
:101480002046FFF789FF6564F8BD266B2023012EF7
:101490007CD1C6067AD5D60678D50868486800900B
:1014A00048694FF00206400640D5E16B0868406885
:1014B0000004000CE8D0A28D8242E5D9E08588695D
:1014C00020282DD020680C3050E8001F21F48071B6
:1014D00040E80012002AF5D12068143050E8001FBF
:1014E00021F0010140E80012002AF5D120681430F3
:1014F00050E8001F21F0400140E80012002AF5D119
:1015000084F84230256320680C3050E8001F21F039
:10151000100140E80012002AF5D1E06BFEF75BFFF6
:101520006663A08DE18D401A81B22AE0A08DE18D25
:10153000401A81B2E08D0028A6D00029A4D02268EC
:101540000C3252E8000F20F4907042E80007002FA0
:10155000F5D12068143050E8002F22F0010240E855
:101560000027002FF5D184F84230256320680C3025
:1015700050E8002F22F0100240E80023002BF5D1A4
:1015800066632046FFF707FFF8BDFFE705062BD58A
:10159000150629D594F841002128F5D1A068B0F5A9
:1015A000805F01D12069B0B1206A411C21622168AD
:1015B00000784860E08C401E0004000CE084E3D119
:1015C0002068C16821F08001C1602068C16841F0D5
:1015D0004001C160D8E7206A0088C0F30800486075
:1015E000206A801C2062E5E74006CDD55006CBD5A9
:1015F000CA68204622F04002CA6084F8413000F0F8
:1016000076F8C1E7871C000870B5040004D094F890
:101610004100002510B106E0012070BD84F8405063
:10162000204600F023F8242084F841002068C16897
:1016300021F40051C160204600F0B6FB206801692A
:1016400021F4904101612068416921F02A01416142
:101650002068C16841F40051C1606564202084F8AD
:10166000410084F842006563002070BD30B585B04C
:10167000002400940194029403940068184988425D
:101680002CD11848816941F480418161816901F45C
:1016900080410491816941F0040181618069124DAA
:1016A00000F0040004904FF40070009002200190BC
:1016B0000320039069462846FEF748FF2815CDE928
:1016C0000004694628460294FEF740FF00220521E7
:1016D0002520FFF7DBF82520FFF7CAF805B030BD5D
:1016E0000038014000100240000801407047704778
:1016F000FEE7000010B596B01C2211496846FEF7BF
:10170000D1FD0021684600F0E5FB0E4C0C491C227F
:1017100020601C3107A8FEF7C5FD002107A800F0D6
:10172000D9FB074960601C2238310EA8FEF7BAFDCC
:1017300000210EA800F0CEFBA06016B010BD000086
:10174000102900080000002070B586B000241C4855
:101750000094019402940394816941F02001816115
:10176000816901F020010491816941F008018161E2
:10177000816901F008010491816941F010018161E2
:10178000816901F010010491816941F004018161D6
:1017900080690C4E00F0040040F2D75504900122FD
:1017A00029463046FEF7CEFF01200095CDE9010421
:1017B0000220039069463046FEF7C8FE06B070BDB1
:1017C00000100240000C01401CB500240F4800949A
:1017D0000D49019401604FF43471C0E9011442F2E3
:1017E0000F718461C160FFF779FB08B1FEF7F1FD6D
:1017F0000094694605480194FFF732FB002801D0A8
:10180000FEF7E7FD1CBD000000100040D8010020DD
:1018100010B596B000240F94109411941294139460
:101820001C2168461494FEF76FFD202107A8FEF7DF
:101830006BFD34483249C0E900144FF6FF71C0E92E
:101840000241046144618461FFF748FB08B1FEF77F
:10185000C0FD4FF480500F900FA92A48FFF7CCFB32
:1018600008B1FEF7B6FD2748FFF75BFD08B1FEF7AC
:10187000B0FD139413A923481494FFF7F1FA08B1AB
:10188000FEF7A7FD6020CDE90004029403940494C0
:101890000594002269461B480694FFF7DCFC08B15A
:1018A000FEF797FD042269461648FFF7D4FC08B1FD
:1018B000FEF78FFD082269461248FFF7CCFC08B1FD
:1018C000FEF787FD0C2269460E48FFF7C4FC08B1FD
:1018D000FEF77FFD0794089409944FF400500A9492
:1018E000CDE90B4007A907480E94FFF78FFA08B11E
:1018F000FEF76FFD0348FFF787FC16B010BD000030
:1019000000340140200200200C4810B50A49016053
:101910004FF416514160002181600C22C160C0E982
:1019200004128161C161FFF76FFE002803D0BDE89A
:101930001040FEF74EBD10BD003801406802002087
:10194000FEE7FEE7012000F0B9FAFBE7012000F016
:10195000B5FAFBE77047000010B5502080F31188FE
:10196000BFF34F8FBFF36F8F00F00AFF18B1044928
:101970004FF080500860002080F3118810BD0000F7
:1019800004ED00E030B58FB028216846FEF7BCFCBE
:1019900014210AA8FEF7B8FC01210804CDE90010C3
:1019A0000024029402250491CDE907504FF4E01081
:1019B00009906846FFF798F808B172B6FEE70F2065
:1019C000CDE90A054FF48060CDE90C4002210AA858
:1019D0000E94FEF78DFF002801D072B6FEE70FB01F
:1019E00030BD70470148FFF776BB0000D8010020EA
:1019F0000148FFF770BB0000B0020020F0B502689C
:101A0000204C214D214E224F224B4FF0804CA042C2
:101A100009D0984207D0604505D0A84203D0B04213
:101A200001D0B84204D122F0700E4A6842EA0E0298
:101A3000A04209D0984207D0604505D0A84203D003
:101A4000B04201D0B84203D122F44075CA682A439B
:101A50004D6922F080022A4302608A68C2620A68E5
:101A60008262A04201D0984201D10969016301213B
:101A700041610169C90703D0016921F001010161D8
:101A8000F0BD0000002C01400004004000080040B0
:101A9000000C00400034014010B5846842EA032283
:101AA00024F47F440A432243826010BD826822F0FE
:101AB00070020A4342F0070181607047F0B5036A83
:101AC000026A22F00102026242688469124E24F026
:101AD00073050C682C4323F002058B682B430D4DD6
:101AE000A84201D0B04205D123F00807CB683B43A0
:101AF00023F00403A84201D0B04205D14D6922F47D
:101B0000407215438A692A4342608461496841638F
:101B10000362F0BD002C014000340140F0B5026AC0
:101B2000036A23F010030362436884690D6824F498
:101B3000E64444EA05248D6822F0200242EA0512B8
:101B40000F4D104EA84201D0B04206D1CF6822F00E
:101B5000800242EA071222F04002A84201D0B042BD
:101B600007D14D6923F4406343EA85038D6943EA55
:101B7000850343608461496881630262F0BD0000AF
:101B8000002C014000340140F0B5026A036A23F4DE
:101B9000807303624368C46922F4007224F0730501
:101BA0000C68124E2C438D6842EA05220E4DA84265
:101BB00001D0B04206D1CF6822F4006242EA072287
:101BC00022F48062A84201D0B04207D14D6923F4CB
:101BD000405343EA05138D6943EA05134360C4612A
:101BE0004968C1630262F0BD002C0140003401402D
:101BF00030B5046A026A22F4805202624268C36904
:101C00000D6823F4E64343EA05238D6824F4005469
:101C100044EA0534084DA84202D0084DA84204D138
:101C20004D6922F4804242EA85124260C3614968EC
:101C30000164046230BD0000002C0140003401400A
:101C400010B5036A046A24F001040462846924F074
:101C5000F00444EA021423F00A020A438461026297
:101C600010BD10B5036A046A24F01004046284698C
:101C700023F0A00324F4704444EA023243EA011141
:101C80008261016210BD10B5406A0021C185C18426
:101C9000FFF782FB10BD01680C3151E8002F22F4E0
:101CA000907241E80023002BF5D10168143151E80E
:101CB000002F22F0010241E80023002BF5D1016B37
:101CC000012909D101680C3151E8002F22F01002DE
:101CD00041E80023002BF5D1202180F8421000219B
:101CE0000163704708B590F84210222901D0022004
:101CF00008BD82684FF480539A4201D1016921B135
:101D0000816A9A421BD04AB10AE00268816A52682D
:101D1000C2F308020A80816A891C08E0026972B174
:101D20000268526802F07F020A70816A491C81626F
:101D3000C18D491E0904090CC18503D01BE002684E
:101D40005268F1E70168CA6822F02002CA6001689F
:101D5000CA6822F48072CA6001684A6922F00102EE
:101D60004A61202180F8421000214163026B012A60
:101D700003D0FFF7BBFC002008BD016301680C31F4
:101D800051E8002F22F0100241E80023002BF5D18A
:101D900001680A68D20602D50A6849680091818DF7
:101DA000FFF7F9FAE7E7000070B50446006801693B
:101DB000E26821F44051114301612169A0680843A0
:101DC000616908432168CA6841F20C639A4302437F
:101DD000CA6020684169A26921F4407111434161E0
:101DE0001E492068884202D1FEF748FE01E0FEF756
:101DF00035FE00EBC00101EB001260686421800039
:101E0000B2FBF0F3B3FBF1F36FF018067343B2FBD0
:101E1000F0F5B2FBF0F605EB8305322303EB051575
:101E2000B5FBF1F5B6FBF1F605F0F00505EB06158F
:101E3000B2FBF0F6B2FBF0F0B0FBF1F06FF018027D
:101E4000504306EB800003EB0010B0FBF1F021687B
:101E500000F00F002844886070BD00000038014089
:101E60000148FFF79BBA000068020020FEE709075F
:101E7000090E002804DB00F1E02080F80014704710
:101E800000F00F0000F1E02080F8141D7047FEF70D
:101E90006DFCFFF777FDFFF757FCFFF795FCFFF7A9
:101EA000B7FCFFF731FDFFF725FC00F00EF8FEE769
:101EB00001460020842900D0C81C704710B500B925
:101EC000012000F01FFB002010BD10B500F040FB0A
:101ED000002010BD7FB50D4604464169B0F90800E9
:101EE00081B1A16971B1FFF7E3FFD4E905128DE873
:101EF0000700D4E900102B46226900F016FC03907D
:101F000004B070BDFFF7D4FF03A9CDE90001208A1A
:101F10002B4682B2D4E9001000F0DAFB012801D090
:101F20000020EDE70398EBE72DE9F041184C0F4650
:101F30000546E6682068001D00F01CFA38B92068E4
:101F400090F82C1001208840216981432161681C90
:101F500007D137B12168BDE8F0410E48091D00F0F6
:101F60004DBA20683544B5424560216805D2A06B62
:101F7000BDE8F041091D00F029BA606B091D00F0B1
:101F800025FAA06A854200D2A562BDE8F081000072
:101F90001C000020D40300202DE9F041054600F08C
:101FA00039FA2E4CA068401CA06020682C4F10B15C
:101FB000606940B32DE02560A068012829D1002682
:101FC00006EB860007EB800000F0F2F9761C072E86
:101FD000F6D323488C3000F0EBF92148A03000F014
:101FE000E7F91F48B43000F0E3F91D48C83000F0AD
:101FF000DFF91B48DC3000F0DBF919488C306063F6
:102000001430A06305E02068E96AC06A884200D8FD
:102010002560606A401C6062E96A0120226988408C
:102020001043206101EB810007EB8000291D00F0C7
:10203000E5F900F00FFA606900280CD02068E96A21
:10204000C06A884207D207494FF080500860BFF34A
:102050004F8FBFF36F8FBDE8F08100001C000020A0
:10206000F802002004ED00E010B5044690F851009D
:1020700058B101280CD002280FD0502080F31188CD
:10208000BFF34F8FBFF36F8FFEE7206B00F0F6F9C1
:102090002046BDE8104000F0F1B910BD10484FF4E3
:1020A0004061420706D0C01D0D4920F00700411ACB
:1020B000C1F540610B4A00230144C2E9000308391D
:1020C000183A21F0070111604B600B600B1AC0E950
:1020D000001393604FF00040536050617047000060
:1020E000E803002070000020144E154CA6F1C8072C
:1020F0004FF08058DFF84C9012E000BF00F08AF9F2
:10210000F068C568281D00F035F9A068401EA06081
:102110006068401E606000F09DF92846FFF7A4FF4C
:1021200060680028EAD138680128F9D9C9F8008028
:10213000BFF34F8FBFF36F8FF2E70000C0030020A3
:102140001C00002004ED00E02DE9F0479A46DDE98F
:10215000098481466FF00303206B03EB8202104475
:10216000089E20F00707780707D0502080F31188D9
:10217000BFF34F8FBFF36F8FFEE7002561B10020E3
:1021800023180A5C83F834200A5C12B1401C102822
:10219000F6D384F8435001E084F83450072E00D37E
:1021A0000626E662C4E91165201D00F00CF904F171
:1021B000180000F008F92461C6F107006462A0610C
:1021C000E56484F8505052464946384600F0C0F85D
:1021D0002060B8F1000F01D0C8F80040BDE8F087DA
:1021E00030B5114900E011460A688242FBD34B68C2
:1021F0005C18844203D1406818444860084643682C
:102200001C18944209D1084C183C2468A24209D0F9
:1022100052681A4442600A6812680260814200D023
:10222000086030BD0460F9E7700000200648416B8B
:10223000096829B1416BC968C968496881627047FA
:102240004FF0FF31FAE700001C000020084840680A
:10225000401C4FF0500080F3118804D0BFF34F8F23
:10226000BFF36F8FFEE7BFF34F8FBFF36F8FFEE7B4
:10227000780000202DE9F0410546002700F09EF986
:10228000324E306808B9FFF709FF706905424ED138
:10229000C5B3083568070ED005F00700C0F1080087
:1022A0000544680707D0502080F31188BFF34F8F93
:1022B000BFF36F8FFEE72DB37068854237D8234890
:1022C000183001460C6801E020460C466168A942BE
:1022D00002D221680029F7D131688C4227D00768E3
:1022E0002168016060680837411B10290FD9601907
:1022F000420708D0502080F31188BFF34F8FBFF3FF
:102300006F8FFEE713E041606560FFF769FF61686A
:102310007068401A7060B268904200D2B060706914
:1023200001430020C4E90001F068401CF06000F0A7
:102330008DFA780707D0502080F31188BFF34F8FB4
:10234000BFF36F8FFEE73846BDE8F08158000020EC
:1023500010B5031F4FF080741C601B1F21F001019A
:102360001960191F024B0B60143940380A6010BD08
:102370004D220008D0E9013201699A60D0E90123B9
:102380005A604A68824201D182684A600022026132
:102390000868401E0860086870470000034B03602F
:1023A00003F1540008604020106070478400002052
:1023B00000F108014FF0FF32C0E90112C160016174
:1023C00000210160704700210161704730B50B6842
:1023D0005A1C02D000F1080202E0026904E0224621
:1023E000546825689D42FAD953684B6099608A60A9
:1023F000516008610168491C016030BD42684A6053
:1024000093688B6093685960916008610168491C0A
:1024100001607047502080F31188BFF34F8FBFF3E6
:102420006F8F0A494868401C486001280CD1084851
:10243000006810F0FF0F07D0502080F31188BFF321
:102440004F8FBFF36F8FFEE77047000078000020CA
:1024500004ED00E00849486828B1401E486001D1F9
:1024600080F311887047502080F31188BFF34F8F9D
:10247000BFF36F8FFEE700007800002070B50028E2
:102480002AD0164DA0F1080460686969084207D196
:10249000502080F31188BFF34F8FBFF36F8FFEE79B
:1024A00022683AB1502080F31188BFF34F8FBFF3F9
:1024B0006F8FFEE78843606000F080F860686968AD
:1024C000084468602046FFF78BFE2869401C28619D
:1024D000BDE8704000F0BAB970BD0000580000209F
:1024E0004FF0E02000210161816105494FF47A72CB
:1024F0000968B1FBF2F1491E416107210161704792
:102500001800002010B5020014D00F48006B38B13D
:10251000502080F31188BFF34F8FBFF36F8FFEE71A
:1025200000F04CF800211046FFF7FEFC00F08EF999
:10253000002807D105494FF080500860BFF34F8F46
:10254000BFF36F8F10BD00001C00002004ED00E001
:1025500010B586B00024039405AA04A903A8049426
:10256000FFF71CFFDDE903010094CDE90110002312
:102570000EA11048059A00F0D8F80F490028C8624B
:1025800011D0502080F31188BFF34F8FBFF36F8FAE
:102590004FF0FF30886201204861CC6006B0BDE892
:1025A000104000F041B806B010BD000049444C4551
:1025B00000000000E92000081C0000200248016B18
:1025C000491C0163704700001C0000201448016B87
:1025D00011B10121C16170470021C1610169B1FAE6
:1025E00081F1C1F11F0101EB81020E4951F8223046
:1025F0006BB101EB820101F108034A6852684A603D
:102600009A4201D152684A60D168016070475020F7
:1026100080F31188BFF34F8FBFF36F8FFEE7000089
:102620001C000020F80200201CB526490878019003
:10263000FF20087008788DF800009DF800009DF8D4
:10264000002000F0F000904207D0502080F3118865
:10265000BFF34F8FBFF36F8FFEE79DF800001A4C5A
:1026600000F0500020700720A06005E09DF80020D9
:1026700052008DF80020401E9DF800201206F5D46F
:10268000A060032807D0502080F31188BFF34F8F3C
:10269000BFF36F8FFEE74FF44070A06001980870A1
:1026A0000A48016841F470010160016841F070411D
:1026B0000160FFF715FF00206060FDF799FD002025
:1026C0001CBD000000E400E07800002020ED00E0E8
:1026D0002DE9FF5F8346DDE90E87994616468A4657
:1026E0009000FFF7C7FD05001CD05420FFF7C2FD86
:1026F000040014D00020256384F85100CDE9024085
:10270000CDE900874B46324651465846FFF71CFD3F
:102710002046FFF741FC012004B0BDE8F09F2846A9
:10272000FFF7ACFE4FF0FF30F6E7F0B585B0DDE91E
:102730000B640A9DA6B1DCB15427009726630226DC
:1027400084F85160002604AFCDE90246CDE9005778
:10275000FFF7FAFC2046FFF71FFC049805B0F0BD18
:10276000502080F31188BFF34F8FBFF36F8FFEE7C8
:10277000502080F31188BFF34F8FBFF36F8FFEE7B8
:102780002DE9F0412F4C0026206B28B1A069401C98
:10279000A0613046BDE8F081E5686D1CE56013D1AD
:1027A000606B006838B1502080F31188BFF34F8F01
:1027B000BFF36F8FFEE7606BA16B6163A063206A5C
:1027C000401C2062FFF732FDA06ADFF87C80854262
:1027D00009D3606B0068A0B1606BC068C768786897
:1027E000854211D2A0622068C06A00EB800158F8CF
:1027F0002100012800D90126E0690028C9D001265E
:10280000C7E74FF0FF30EDE7381DFFF7B3FDB86ABB
:1028100018B107F11800FFF7ADFDF96A0120226930
:1028200088401043206101EB810108EB8100391DD4
:10283000FFF7E4FDF86A2168C96A8842C9D3012616
:10284000C7E700001C000020F80200202DE9F04737
:102850002C4D00242746286B38B1FFF7DBFD286B91
:10286000401E2863286B40B146E0502080F3118859
:10287000BFF34F8FBFF36F8FFEE7A968224E012091
:10288000D1B3A6F1B40980463068E8B1F068C468F5
:1028900004F11800FFF76EFD201DFFF76BFDE06AE5
:1028A0002A6908FA00F11143296100EB800109EB64
:1028B0008100211DFFF7A2FDE06A2968C96A8842EC
:1028C000E2D3C5F81C80DFE70CB1FFF7AFFCAC69C1
:1028D00044B14646FFF754FF00B1EE61641EF9D1E2
:1028E0000020A861E86938B1084901273807086065
:1028F000BFF34F8FBFF36F8FFFF7ACFD3846BDE8D6
:10290000F08700001C000020AC03002004ED00E074
:10291000A829000845190008FDFF0000000000007C
:102920004000000000000000000000009C2900089A
:1029300055190008000000000000000080000000A1
:102940000000000000000000902900084D19000858
:1029500000000000000000008000000000000000F7
:1029600000000000010202030405060708090A0B23
:102970000C0D0E0F101000000000000000000102FE
:102980000304060708090000000001020304000018
:10299000554152545461736B000000006D6F746FA9
:1029A000725461736B00000064656661756C7454E9
:1029B00061736B00D429000800000020840000002F
:1029C0006C010008582A000884000020C41500008B
:1029D0008801000800000000000000000000000066
:1029E00001000000100000000000000000127A004A
:1029F00000000000000000000000000000000000D7
:102A000000000000000000000000000000000000C6
:102A100000000000000000000000000000000000B6
:102A200000000000000000000000000000000000A6
:102A30000000000000000000000000000000000096
:102A40000000000000000000000000000000000086
:082A5000AAAAAAAA00000000D6
:0400000508000131BD
:00000001FF
