:020000040800F2
:100000006818002065020008BD250008991E000838
:10001000ED230008CF030008213000080000000095
:10002000000000000000000000000000CD010008FA
:1000300013040008000000001102000859290008FC
:100040007F0200087F0200087F0200087F0200088C
:100050007F0200087F0200087F0200087F0200087C
:100060007F0200087F0200087F0200087F0200086C
:10007000D1030008DD0300087F0200087F020008AA
:100080007F0200087F0200087F0200087F0200084C
:100090007F0200087F0200087F0200087F0200083C
:1000A0007F0200087F0200087F0200087F0200082C
:1000B0007F0200087F0200087F0200087F0200081C
:1000C0007F0200087F0200087F0200087F0200080C
:1000D0007F0200087F0200087F0200081530000838
:1000E0007F0200087F0200087F0200087F020008EC
:1000F0007F0200087F0200087F0200087F020008DC
:100100007F0200087F0200087F0200087F020008CB
:100110007F0200087F020008E5290008F129000895
:100120007F0200087F0200087F0200087F020008AB
:1001300000F002F800F03AF80AA090E8000C8244BF
:100140008344AAF10107DA4501D100F02FF8AFF29C
:10015000090EBAE80F0013F0010F18BFFB1A43F0A5
:1001600001031847684A0000884A0000103A24BF7B
:1001700078C878C1FAD8520724BF30C830C144BF0C
:1001800004680C607047000000230024002500264E
:10019000103A28BF78C1FBD8520728BF30C148BFEA
:1001A0000B6070471FB51FBD10B510BD00F0DAF829
:1001B0001146FFF7F7FF02F049FF00F0F8F803B42B
:1001C000FFF7F2FF03BC00F0FBF80000224B1968B8
:1001D0000868B0E8F00F80F30988BFF36F8F4FF025
:1001E000000080F311884EF00D0E704700000000F3
:1001F00006480068006880F3088862B661B6BFF3FD
:100200004F8FBFF36F8F00DF00BF00BF08ED00E02E
:10021000EFF30980BFF36F8F0F4B1A6820E9F00FDF
:10022000106008B54FF0500080F31188BFF34F8F76
:10023000BFF36F8F03F036FB4FF0000080F311889F
:10024000BDE8084019680868B0E8F00F80F3098835
:10025000BFF36F8F704700BF1C000020EFF30580D5
:10026000704700000948804709480047FEE7FEE75D
:10027000FEE7FEE7FEE7FEE7FEE7FEE7FEE7FEE756
:1002800004480549054A064B70470000E329000869
:10029000310100086812002068180020681400204E
:1002A0006814002010B5203AC0F00B80B1E8185057
:1002B000203AA0E81850B1E81850A0E81850BFF450
:1002C000F5AF5FEA027C24BFB1E81850A0E81850EF
:1002D00044BF18C918C0BDE810405FEA827C24BF43
:1002E00051F8043B40F8043B08BF7047D20728BFD1
:1002F00031F8023B48BF11F8012B28BF20F8023B20
:1003000048BF00F8012B70474FF0000200B51346BC
:1003100094469646203922BFA0E80C50A0E80C5025
:10032000B1F12001BFF4F7AF090728BFA0E80C50D6
:1003300048BF0CC05DF804EB890028BF40F8042BCF
:1003400008BF704748BF20F8022B11F0804F18BF3C
:1003500000F8012B7047704770477047004870479E
:10036000041200207546FFF7F9FFAE460500694606
:10037000534620F00700854618B020B5FFF780FFF0
:10038000BDE820404FF000064FF000074FF0000896
:100390004FF0000B21F00701AC46ACE8C009ACE817
:1003A000C009ACE8C009ACE8C0098D46704710B57B
:1003B0000446AFF300802046BDE81040FFF7FFBEC3
:1003C00001491820ABBEFEE7260002007047FEE799
:1003D000014800F0DDB8000068040020014800F08A
:1003E000D7B800002404002030B590F84050012414
:1003F000AC40C56B6C60046863604368102B036895
:1004000003D099600068C26030BD9A600068C16026
:1004100030BD704772B6FEE710B590F8211000228B
:10042000022905D00421816380F82020012010BD1D
:1004300001680B6823F00E030B6001680B6823F062
:1004400001030B6090F84030C46B012101FA03F303
:10045000636080F8211080F82020104610BD000055
:100460002DE9F05F90F821100024022903D0042127
:100470008163012485E001680A6822F00E020A60A7
:1004800001680A6822F001020A603F4E3E4FB21531
:10049000DFF8F4C0DFF8F090DFF8ECA0DFF8E8B0A8
:1004A000DFF8E4E00168783F13011502ACF1640C59
:1004B000A9F15009AAF13C0AABF1280BAEF1140ED8
:1004C0004FF48018B14227D9B9420ED0614512D0FD
:1004D00049451DD0514518D0594518D0714501D115
:1004E000424615E0294EB14201D1012210E0274ECB
:1004F0001436B14201D110220AE0244E2836B1420E
:1005000006D0224A3C32914201D11A4600E02A46E6
:100510001E49091F0A602BE0B94213D0614517D06C
:10052000494522D051451DD059451DD0714501D1B5
:1005300042461AE0B14202D14FF0807215E0134EEC
:10054000B14201D1012210E0104E1436B14201D166
:1005500010220AE00D4E2836B14206D00B4A3C323A
:10056000914201D11A4600E02A46074980394A6083
:10057000012180F82110002180F82010416B01B189
:1005800088472046BDE8F09F8000024008040240F2
:100590002DE9F05FC16B0A6801680B68046C4FF0CD
:1005A000040808FA04F8844D844E854FDFF814C21D
:1005B000DFF81492DFF814A2DFF814B2DFF814E2C7
:1005C00018EA020F65D05FEA437862D50A6892069E
:1005D00003D40A6822F004020A60DFF8F0814FF4C5
:1005E0008062016808F1140813011402414524D9FE
:1005F000A9420DD0B1420FD0B9421AD0614515D0F1
:10060000494515D0514501D1120312E0594501D198
:1006100004220EE0714501D140220AE06D4D1435EF
:10062000A94206D06B4A2832914201D11A4600E015
:1006300022466749091F0A6029E0A94213D0B14246
:1006400015D0B94220D061451BD049451BD051453A
:1006500002D14FF4800217E0414502D14FF0806291
:1006600012E0594501D104220EE0714501D140222A
:100670000AE0584D1435A94206D0564A2832914214
:1006800001D11A4600E022464B4908394A60C16A46
:1006900071E04FF0020808FA04F818EA020F70D06F
:1006A0005FEA83786DD50A68920606D40A6822F05C
:1006B0000A020A60012180F82110DFF810814FF44E
:1006C0000072016808F1140813011402414524D98D
:1006D000A9420DD0B1420FD0B9421AD0614515D010
:1006E000494515D0514501D1120312E0594501D1B8
:1006F00002220EE0714501D120220AE0354D143569
:10070000A94206D0334A2832914201D11A4600E06C
:1007100022462F49091F0A6029E0A94213D0B1429D
:1007200015D0B94220D061451BD049451BD0514559
:1007300002D14FF4001217E0414502D14FF0007290
:1007400012E0594501D102220EE0714501D120226B
:100750000AE0204D1435A94206D01E4A28329142A3
:1007600001D11A4600E02246134908394A600021A7
:1007700080F82010816A00291CD0BDE8F05F08478E
:10078000FFE70825A540154214D01A0712D50A68BC
:1007900022F00E020A6090F84020C36B012101FA9A
:1007A00002F25A60816380F82110002180F8201045
:1007B000016BE0E7BDE8F09F080002401C0002402A
:1007C0003000024044000240580002406C000240E9
:1007D000080402401C04024030B560B11A4B0268A4
:1007E00014219A4209D2194B1344B3FBF1F1890049
:1007F000016417490AE0012030BD134B5B421344EA
:10080000B3FBF1F1890001640F490839C16302218A
:1008100080F82110136843F6F0718B43F0E901145E
:100820002143D0E902452C43214304692143446913
:10083000214384692143194311600021416301224E
:1008400042770177084630BD08040240F8FFFDBF3B
:100850000000024070B5044690F8200000250128F1
:100860000CD0012084F8200094F821600020012E93
:1008700006D084F820000225284670BD022070BDF5
:10088000022684F82160A0632068066826F001062D
:1008900006602046FFF7A8FDE06A0028206801688E
:1008A00002D041F00E0106E021F004010160206851
:1008B000016841F00A0101602068016841F001010E
:1008C0000160D9E770B5044600F010F90546601CD8
:1008D00002D004480078044400F008F9401BA0420C
:1008E000FAD370BD0C0000202DE9F84FDFF8C89155
:1008F0000024A9F1040B23460F2709F1040AABF1E8
:10090000040ED1E00125A54006EA0502AA4276D1EF
:10091000DFF8A8C14E68A6EB0C0866452BD00DDCAD
:10092000032E34D005DC36B3012E19D0022E2FD180
:100930001BE0112E16D0122E2AD119E0B8F5881F0F
:1009400019D006DCB8F5803F15D0B8F5801F1FD14F
:1009500011E0B8F5001F0ED0B8F5041F18D10AE059
:10096000CB6815E0CB681B1D12E0CB6808330FE0A5
:10097000CB680C330CE08B682BB1012B4FF00803D4
:1009800003D0456104E0042302E0056100E0002398
:10099000FF2A01D8064601E000F104064FEA84056B
:1009A00001D9A5F12005D6F8008007FA05FC28EA50
:1009B0000C0803FA05F548EA0508C6F800804D68FA
:1009C000ED0070D53E4DAE6946F00106AE61AD69F1
:1009D00024F0030605F0010500953A4D06EB050CE1
:1009E000DCF80850A607360F07FA06F825EA0805CE
:1009F000DFF8D480404503D14FF0000825E052E0F5
:100A0000DFF8C880404502D14FF001081DE0DFF853
:100A1000C080404502D14FF0020816E0DFF8B480F4
:100A2000404502D14FF003080FE0DFF8AC804045AD
:100A300002D14FF0040808E0DFF8A080404502D161
:100A40004FF0050801E04FF0060808FA06F848EAFA
:100A50000508CCF808804D68D9F80060ED024D46D5
:100A600001D5164300E096432E604D68DAF8006029
:100A7000AD02554601D5164300E096432E604D6801
:100A8000DBF80060AD035D4601D5164300E09643F8
:100A90002E604D68DEF80060ED03754601D5164303
:100AA00000E096432E60641C0A681646E2407FF41C
:100AB00029AFBDE8F88F00000804014000001110C4
:100AC000001002400000014000080140000C0140FD
:100AD000001001400014014000180140001C0140BA
:100AE0000AB1016170470904FBE700000148806812
:100AF000704700000C000020024881680278114411
:100B0000816070470C000020074810B5016841F073
:100B100010010160032000F0A7F80F2000F006F894
:100B200000F050F8002010BD0020024030B505460E
:100B30001F4887B0C16941F02001C161C06906A9A1
:100B400000F02000009001A800F036F90498B0B140
:100B500000F052F940001749174AB0FBF1F117486D
:100B6000491E0260416040F2E7320021C0E90321E2
:100B70008160816100F080FB040003D015E000F08B
:100B80003BF9E8E70D4800F0CFFB04000DD137201A
:100B900000F03CF8102D07D200222946372000F043
:100BA00043F80748056000E0012407B0204630BD47
:100BB0000010024040420F0000140040AC0400202E
:100BC000100000200F4808B5816941F001018161E2
:100BD000816901F001010091C16941F08051C16159
:100BE000C069002200F0805000900F21901E00F09C
:100BF0001BF80548416821F0E06141F00071416057
:100C000008BD00000010024000000140002809DB80
:100C100000F01F02012191404009800000F1E02016
:100C2000C0F8001170470000F0B40E4B1B680C4672
:100C3000C3F30223C3F10705042D00D90425191DB0
:100C4000072901D2002300E0DB1E012606FA05F188
:100C5000491E214099409E40761E16403143F0BC0B
:100C600002F0DFB90CED00E0064900F00702086869
:100C70004FF6FF03184040EA0220034A1043086081
:100C8000704700000CED00E00000FA052DE9F04788
:100C90000F46050061D0434E306800F00700B842AF
:100CA00009D2306820F0070038433060306800F027
:100CB0000700B84251D128683B4C810712D5400744
:100CC00003D5606840F4E06060602878000703D5D1
:100CD000606840F4605060606068A96820F0F000CF
:100CE000084360602878C00728D06868012810D0C1
:100CF0002168022810D0890700292EDA616821F0C6
:100D0000030101436160FFF7F1FE804641F288393B
:100D10000DE021688903EFE78901EDE7FFF7E6FEC3
:100D2000A0EB0801494502D90320BDE8F0876068BF
:100D3000696800F00C00B0EB810FEFD1306800F073
:100D40000700B8420BD9306820F007003843306004
:100D5000306800F00700B84201D00120E5E72878AC
:100D6000400705D56068E96820F4E06008436060EA
:100D70002878000706D56068296920F4605040EAA9
:100D8000C100606000F058F86168084AC1F30311BF
:100D9000515CC8400649086006480068FFF7C6FE77
:100DA0000020C2E700200240001002408E4B0008E5
:100DB00018000020100000200F2202600C4A536827
:100DC00003F003034360536803F0F0038360536848
:100DD00003F4E063C36052684FF4E06303EAD202B5
:100DE00002610448006800F00700086070470000D6
:100DF000001002400020024004480549006849688C
:100E0000044AC1F30221515CC84070471800002019
:100E1000001002409E4B00080448054900684968DC
:100E2000044AC1F3C221515CC84070471800002039
:100E3000001002409E4B00080E4A51680E4801F017
:100E40000C03042B11D0082B0FD10C48C1F38343A2
:100E5000C903C05C0AD55168084AC1F34041921EDB
:100E6000515C054A5043B0FBF1F0704704494843D8
:100E7000704700000010024000127A007E4B00080C
:100E800000093D002DE9F84F040070D02078C04DD6
:100E9000C00749D06868C0F38100012807D068689E
:100EA000C0F38100022809D16868C00306D528680C
:100EB000800339D560680028E7D035E06068B0F578
:100EC000803F0BD010B1B0F5A02F11D0286820F4CE
:100ED00080302860286820F4802002E0286840F4F0
:100EE00080302860606890B1FFF700FE06460AE097
:100EF000286840F480202860F0E700BFFFF7F6FD87
:100F0000801B642873D828688003F7D50CE0FFF7AE
:100F1000EDFD064605E000BFFFF7E8FD801B6428F5
:100F2000F0D828688003F7D420789A4E80074FF0D5
:100F300001094FF0000839D5686810F00C0F07D090
:100F40006868C0F38100022809D16868C00306D42C
:100F50002868800714D52069012808D110E020698D
:100F6000B0B1C6F80090FFF7C1FD074605E00AE101
:100F7000FFF7BCFDC01B0228C4D828688007F7D53E
:100F80002868616920F0F80040EAC10028600DE09F
:100F9000C6F80080FFF7AAFD074604E0FFF7A6FDAC
:100FA000C01B022823D828688007F7D420780007C0
:100FB0002CD57948A169D9B1C0F80090FFF796FD0A
:100FC000074604E0FFF792FDC01B02280FD8686AAD
:100FD0008007F7D571484FF4FA510068B0FBF1F083
:100FE000009000BF0098411E0091FAD20EE080E010
:100FF000C0F80080FFF77AFD074604E0FFF776FDB2
:10100000C01B022875D8686A8007F7D4207840078B
:1010100060D5E8690027C00008D4E86940F0805036
:10102000E861E869012700F0805000905C480168A1
:10103000C90513D40168834641F480710160FFF74C
:1010400055FD824606E000BFFFF750FDA0EB0A0009
:1010500064284ED8DBF80000C005F5D5E06801280B
:101060000AD008B1052813D0286A20F001002862B0
:10107000286A20F0040002E0286A40F0010028629B
:10108000E06841F2883B98B1FFF730FD82460BE003
:10109000286A40F004002862EEE700BFFFF726FD53
:1010A000A0EB0A0159455AD8286A8007F6D50CE00A
:1010B000FFF71CFD824605E0FFF718FDA0EB0A01D3
:1010C00059454CD8286A8007F6D41FB1E86920F04A
:1010D0008050E861E06988B36968C1F38101022941
:1010E00044D00228C6F8608004D0FFF7FFFC044615
:1010F00038E034E0FFF7FAFC074604E0FFF7F6FCBF
:10110000C01B02282BD828688001F7D4206AB0F5CC
:10111000803F05D16868A16820F40030084368600A
:10112000D4E908010843696821F474110843686030
:10113000C6F86090FFF7DAFC044606E025E000BF41
:10114000FFF7D4FC001B022809D828688001F7D5D6
:101150001BE000BFFFF7CAFC001B022802D90320D6
:10116000BDE8F88F28688001F4D40EE00128F7D09C
:101170006868226A00F48031914204D1616A00F407
:101180007010884201D00120EAE70020E8E7000063
:101190000010024000004242800442421800002039
:1011A000007000407047704710B590F83C20012A4D
:1011B00022D0012280F83C20CA688C6822F4407258
:1011C00022434C6822F4806222430C6822F40062BD
:1011D00022430C6922F4805222434C6922F40052CB
:1011E0002243C969002322F480420A4301684A6409
:1011F00080F83C30002010BD022010BD70B590F882
:101200003C20012A2CD0012480F83C40022280F8A6
:101210003D2003685A689D6822F070060A683243D0
:101220005A60104B02689A420ED00F4B9A420BD074
:10123000B2F1804F08D00D4B9A4205D00C4B9A4228
:1012400002D00C4B9A4204D1496825F0800319431F
:10125000916080F83D40002180F83C10084670BD48
:10126000022070BD002C0140003401400004004009
:1012700000080040000C004010B5040003D094F8B2
:101280003D0010B107E0012010BD002084F83C00B3
:10129000204600F01FF8022084F83D00211D206840
:1012A00001F0ACFB012084F8460084F83E0084F88D
:1012B0003F0084F8400084F8410084F8420084F83C
:1012C000430084F8440084F8450084F83D00002081
:1012D00010BD000008B5114A01681148914211D1B2
:1012E000C16941F01001C161C069002200F0100025
:1012F000009006213620FFF797FCBDE80840362015
:10130000FFF784BC074A914207D1816941F400513B
:101310008161806900F40050009008BD0010004019
:10132000001002400034014090F83D10012901D026
:1013300001207047022180F83D100168CA6842F020
:101340000102CA6000680E4988420ED00D498842E9
:101350000BD0B0F1804F08D00B49884205D00B4923
:10136000884202D00A49884204D1816801F007010D
:10137000062903D0016841F0010101600020704797
:10138000002C0140003401400004004000080040EF
:10139000000C004070B5044690F83C000025012880
:1013A00017D0012684F83C60022084F83D002068B4
:1013B000826822F0770222F47F4282600868502817
:1013C00038D00DDC20284FD005DC90B3102811D187
:1013D0004AE0022070BD302846D040280AD13BE0C8
:1013E00060282FD070280DD0B0F5805F03D0B0F505
:1013F000005F12D0012584F83D60002084F83C0095
:10140000284670BDCB68D1E90121206801F051FB6D
:101410002068816841F0770109E0CB68D1E90121BA
:10142000206801F046FB2068816841F480418160BA
:10143000E1E719E0CA684968206801F00FFC502113
:10144000206806E0CA684968206801F018FC60213D
:10145000206801F038FBCEE7CA684968206801F0CF
:10146000FDFB40212068F4E7226801461046F0E7C2
:101470002DE9F0410D46040003D094F83D0018B169
:1014800008E00120BDE8F081002084F83C002046FF
:1014900000F040F8022084F83D002068816844F2A2
:1014A000070291438160211D206801F0A7FA22689C
:1014B00090689169166A2B68AF69034340F2033064
:1014C000814341EA0721A868EF6908434FF6FC41D0
:1014D0008843E96840EA0720014328692F6A000130
:1014E00040EA0730084369686D6926F0220646EA3B
:1014F0000515294393602268906154F8460B0162F8
:10150000012004F81F09E0752076E0762077A075A9
:101510000020B7E730B585B0002400940194029410
:10152000039400683F49404B404DB0F1804F15D0C7
:101530003F4CC022A04243D1C86940F00200C861BC
:10154000C86900F002000490886940F004008861D6
:101550008869009200F0040004905FE0C86940F0E0
:101560000100C861C86900F001000490886940F07A
:1015700004008861886900F004000490886940F0E4
:10158000080088618869694600F0080004904FF4FB
:10159000004000901846FFF7A7F90820CDE90004A5
:1015A000694628460294FFF79FF92248416821F4D2
:1015B000407141F0E06141F48071416005B030BD9F
:1015C0001D4CA04215D1C86940F00400C861C8692B
:1015D00000F004000490886940F008008861886980
:1015E000694600F00800049000922846FFF77CF955
:1015F000E4E7124A9042E1D1C86940F00800C861AE
:10160000C86900F008000490886940F0040088610F
:10161000886900F004000490032000906946184691
:10162000E4E700000010024000080140000C014007
:10163000000400400000014000080040000C004091
:1016400070B590F83E60044690F83F5090F84230F4
:1016500090F84320022021B104290ED0012E1BD185
:1016600014E0012E18D1012B16D184F83E0084F825
:10167000420001220021206820E0012D0CD1012A26
:101680000AD184F83F0084F8430014E0012D03D10F
:10169000012B01D1012A01D0012070BD84F83E0048
:1016A00084F83F0084F8420084F8430001220021BE
:1016B000206801F0F1F901220421206801F0ECF921
:1016C0002068016841F001010160002070BD704791
:1016D0002DE9F04104460068C66805694FF000072F
:1016E000A90713D5B10711D5F91E01610120207793
:1016F000206880698007204602D0FFF7E8FF04E0F9
:1017000000F0BCF8204600F061F92777680716D58D
:10171000700714D521686FF004000861022020775B
:101720002068806910F4407F204602D0FFF7CFFF89
:1017300004E000F0A3F8204600F048F927772807D6
:1017400015D5300713D521686FF008000861042013
:1017500020772068C0698007204602D0FFF7B7FFD6
:1017600004E000F08BF8204600F030F92777E80617
:1017700016D5F00614D521686FF010000861082016
:1017800020772068C06910F4407F204602D0FFF720
:101790009EFF04E000F072F8204600F017F927776A
:1017A000E80708D0F00706D021686FF00100086153
:1017B000204600F067F9280608D5300606D52168CE
:1017C0006FF0800008612046FFF7ECFC680608D542
:1017D000700606D521686FF040000861204600F0D1
:1017E0005BF9A8060AD5B00608D521686FF020007D
:1017F00008612046BDE8F041FFF7D5BCBDE8F081A7
:1018000000B585B000210091019102910391164B22
:101810000268164802219A420FD1826942F00402FE
:1018200082618069039100F0040004904FF47060BD
:10183000CDE9000169460E4811E00E4B9A4210D1E5
:10184000826942F0100282618069039100F0100009
:1018500004904FF47070CDE9000169460648FFF727
:1018600043F805B000BD0000002C0140001002400C
:10187000000801400034014000100140704770B57D
:10188000044690F83C0000260D4601280FD00120A8
:1018900084F83C006AB1042A1DD0082A2FD00C2AF3
:1018A0003FD00126002084F83C00304670BD022065
:1018B00070BD206801F010F92068816941F00801CD
:1018C00081612068816921F004018161206881695A
:1018D0002A69114311E0206801F02EF9206881691E
:1018E00041F4006181612068816921F48061816136
:1018F000206881692A6941EA02218161D2E7206872
:1019000001F050F92068C16941F00801C161206807
:10191000C16921F00401C1612068C1692A691143CC
:1019200011E0206801F072F92068C16941F400619A
:10193000C1612068C16921F48061C1612068C16909
:101940002A6941EA0221C161ACE710B5040003D065
:1019500094F83D0010B107E0012010BD002084F88C
:101960003C00204600F01EF8022084F83D00211DB6
:10197000206801F043F8012084F8460084F83E0016
:1019800084F83F0084F8400084F8410084F8420065
:1019900084F8430084F8440084F8450084F83D004E
:1019A000002010BD08B500680649884208D10648E5
:1019B000816941F400618161806900F400600090F8
:1019C00008BD0000002C01400010024070470000DC
:1019D00010B50446022249B104290ED0082913D0BB
:1019E00094F84100012816D0012010BD94F83E0063
:1019F0000128F9D184F83E200FE094F83F00012837
:101A0000F2D184F83F2008E094F840000128EBD19F
:101A100084F8402001E084F841200122206801F090
:101A20003BF813492068134A884201D0904203D101
:101A3000436C43F400434364206888420DD09042D5
:101A40000BD0B0F1804F08D00B49884205D00B492C
:101A5000884202D00A49884204D1816801F0070116
:101A6000062903D0016841F001010160002010BD8A
:101A7000002C0140003401400004004000080040F8
:101A8000000C004000680349884201D1FFF734B8D8
:101A90007047000000140040704770477047000016
:101AA000F8B5016804460868CA684B6910F00F0F62
:101AB0004FF0000559D003F0010602F49077374348
:101AC00065D0C10705D0D10503D5616C41F0010196
:101AD0006164410705D5D90703D0616C41F002016B
:101AE0006164810705D5D90703D0616C41F0040119
:101AF0006164010707D502F02001314303D0616C16
:101B000041F008016164616C00293AD0800604D577
:101B1000900602D5204601F078F920684069616C92
:101B2000C0F38010090700D460B3204601F038F9F3
:101B300020684069400621D52068143050E8001F15
:101B400021F0400140E80012002AF5D1E06BA8B175
:101B50006D494163E06BFEF783FC002811D0E06B18
:101B6000416B01B0BDE8F040084783060FD59306EE
:101B70000DD52046BDE8F84001F047B92046FFF7F3
:101B80008DFFF8BD2046FFF789FF6564F8BD266B21
:101B90002023012E7CD1C6067AD5D60678D50868D2
:101BA0004868009048694FF00206400640D5E16B56
:101BB000086840680004000CE8D0A28D8242E5D994
:101BC000E085886920282DD020680C3050E8001F5F
:101BD00021F4807140E80012002AF5D12068143009
:101BE00050E8001F21F0010140E80012002AF5D161
:101BF0002068143050E8001F21F0400140E8001236
:101C0000002AF5D184F84230256320680C3050E872
:101C1000001F21F0100140E80012002AF5D1E06B0E
:101C2000FEF7FAFB6663A08DE18D401A81B22AE0CF
:101C3000A08DE18D401A81B2E08D0028A6D0002948
:101C4000A4D022680C3252E8000F20F4907042E8D1
:101C50000007002FF5D12068143050E8002F22F043
:101C6000010240E80027002FF5D184F842302563B7
:101C700020680C3050E8002F22F0100240E80023CA
:101C8000002BF5D166632046FFF707FFF8BDFFE79D
:101C900005062BD5150629D594F841002128F5D144
:101CA000A068B0F5805F01D12069B0B1206A411C05
:101CB0002162216800784860E08C401E0004000C1E
:101CC000E084E3D12068C16821F08001C160206810
:101CD000C16841F04001C160D8E7206A0088C0F3C4
:101CE00008004860206A801C2062E5E74006CDD5E8
:101CF0005006CBD5CA68204622F04002CA6084F85C
:101D0000413000F0C8F8C1E7A32C000870B504000A
:101D100004D094F84100002510B106E0012070BD08
:101D200084F84050204600F023F8242084F8410035
:101D30002068C16821F40051C160204601F0C6F856
:101D40002068016921F4904101612068416921F016
:101D50002A0141612068C16841F40051C160656495
:101D6000202084F8410084F842006563002070BDA3
:101D7000F0B585B0002406460094019402940394C3
:101D800000682D49884254D12C48C16941F4802112
:101D9000C161C16901F480210491816941F00801A8
:101DA00081618069264D00F0080004904FF4806046
:101DB0000090022001900320039069462846FEF718
:101DC00093FDE814CDE90004694628460294FEF725
:101DD0008BFD1D4D1B488027C5E90004C5E902475E
:101DE0002C616C61AC612846EC61FEF7F5FC08B132
:101DF000FEF710FBF5636E62134D1248443514383C
:101E000001C5102091C5104845F8104944306C6157
:101E1000AC61EC61FEF7E0FC08B1FEF7FBFAB563DC
:101E20000022052127206E62FEF7FEFE2720FEF726
:101E3000EDFE05B0F0BD000000480040001002407B
:101E4000000C0140300002402404002090F8423091
:101E5000202B01D00220704721B11AB10023036367
:101E600001F090B80120704710B50068064988421B
:101E700002D1064801F080FBBDE810400B22034967
:101E80000348FFF7E3BF0000004800408400002043
:101E9000DC03002070477047FEE700000D4808B5DE
:101EA000416941F0010141614069002200F00100F7
:101EB000009005210C20FEF7B7FE0C20FEF7A6FED1
:101EC000002205210D20FEF7AFFEBDE808400D20E1
:101ED000FEF79CBE0010024010B596B01C221149BE
:101EE0006846FEF7DFF90021684601F0F4F80E4C71
:101EF0000C491C2220601C3107A8FEF7D3F90021F1
:101F000007A801F0E8F8074960601C2238310EA8E4
:101F1000FEF7C8F900210EA801F0DDF8A06016B0A8
:101F200010BD0000284B0008000000202DE9F04300
:101F300085B000242C480094019402940394816994
:101F400041F020018161816901F0200104918169E2
:101F500041F010018161816901F0100104918169F2
:101F600041F004018161816901F0040104918169FA
:101F700041F00801816180691C4F00F0080041F6C2
:101F800036450490002229463846FEF7A9FDDFF8C1
:101F90006080002230214046FEF7A2FDDFF8549019
:101FA000002204214846FEF79BFD009502260125EC
:101FB0000396CDE9015469463846FEF795FC30207A
:101FC000CDE90005CDE9024669464046FEF78CFCA6
:101FD0000420CDE90005CDE9024669464846FEF7F2
:101FE00083FC05B0BDE8F083001002400010014002
:101FF000000801400014014010B592B000240F9475
:102000001C2168461094FEF77FF9202107A8FEF7EF
:102010007BF92D482B49016040F2CF21C0E9011422
:1020200040F2CF71C0E903148021C0E90541FFF7F8
:102030008CFC08B1FEF7EEF90F940FA9224810941A
:10204000FFF7DCF808B1FEF7E5F96020CDE9000400
:102050000294039404940594002269461A48069455
:10206000FFF70DFC08B1FEF7D5F9042269461648C2
:10207000FFF705FC08B1FEF7CDF9082269461248C2
:10208000FFF7FDFB08B1FEF7C5F90C2269460E48C3
:10209000FFF7F5FB08B1FEF7BDF907940894099422
:1020A0004FF400500A94CDE90B4007A906480E945E
:1020B000FFF77AF808B1FEF7ADF90348FFF7A0FB88
:1020C00012B010BD002C0140E401002010B58CB00E
:1020D00024216846FEF718F90024154809944FF0AA
:1020E00080410A94C0E9001444F62061C0E902412D
:1020F000046184610320CDE900040120CDE90204DC
:102100000494CDE905400794694609480894FFF70F
:10211000AFF908B1FEF77EF9099409A904480A94B9
:10212000FFF76CF8002801D0FEF774F90CB010BD71
:102130002C02002010B58CB024216846FEF7E4F88C
:1021400000241648099414490A94C0E9001444F67E
:102150002061C0E90241046184610320CDE90004EB
:102160000120CDE902040494CDE9054007946946B5
:102170000A480894FFF77CF908B1FEF74BF9099477
:1021800009A906480A94FFF739F8002801D0FEF79C
:1021900041F90CB010BD00000004004074020020A2
:1021A00010B58CB024216846FEF7AEF8002416481E
:1021B000099414490A94C0E9001444F62061C0E966
:1021C0000241046184610320CDE900040120CDE9CE
:1021D00002040494CDE90540079469460A4808942E
:1021E000FFF746F908B1FEF715F9099409A9064861
:1021F0000A94FFF703F8002801D0FEF70BF90CB0A2
:1022000010BD000000080040BC02002010B58CB0DA
:1022100024216846FEF778F80024164809941449EA
:102220000A94C0E9001444F62061C0E90241046147
:1022300084610320CDE900040120CDE90204049467
:10224000CDE90540079469460A480894FFF710F95C
:1022500008B1FEF7DFF8099409A906480A94FEF7C9
:10226000CDFF002801D0FEF7D5F80CB010BD00005E
:10227000000C0040040300201CB500240E4800940C
:102280000C49019401604721C0E9011442F20F7129
:102290008461C160FEF7F0FF08B1FEF7BBF800945F
:1022A000694605480194FEF7A9FF002801D0FEF712
:1022B000B1F81CBD001000404C03002010B596B0D2
:1022C00000240F9410941194129413941C216846C6
:1022D0001494FEF719F8202107A8FEF715F83448E2
:1022E0003249C0E9001441F61F41C0E902410461CE
:1022F00044618461FEF7C0FF08B1FEF78BF84FF42C
:1023000080500F900FA92A48FFF744F808B1FEF754
:1023100081F82748FFF719FB08B1FEF77BF8139403
:1023200013A923481494FEF769FF08B1FEF772F869
:102330006020CDE9000402940394049405940022E3
:1023400069461B480694FFF79AFA08B1FEF762F84F
:10235000042269461648FFF792FA08B1FEF75AF8C8
:10236000082269461248FFF78AFA08B1FEF752F8C8
:102370000C2269460E48FFF782FA08B1FEF74AF8C8
:102380000794089409944FF400500A94CDE90B4047
:1023900007A907480E94FEF707FF08B1FEF73AF8C1
:1023A0000348FFF72DFA16B010BD000000340140BD
:1023B000940300200C4810B50A4901604FF4E13144
:1023C0004160002181600C22C160C0E9041281617A
:1023D000C161FFF79BFC002803D0BDE81040FEF769
:1023E00019B810BD00480040DC030020FEE770B5BE
:1023F0000446006C02F0B2F905B2E06B02F0AEF9EF
:1024000001B22A4604F1440000F0D9F8A4F85400BF
:1024100070BD000070B504460E1EC068218A1ADD2A
:102420005FF00102FEF75CFB218B0022D4F8140060
:10243000FEF756FB3046A56801F03BFE21F0004157
:1024400001F00AFE85B1042D12D06168082D0968DB
:1024500012D0086470BD4FF00002E3DAFEF740FBD3
:10246000218B01226069E3E761680968486370BDF8
:1024700061680968886370BDC86370BD01680968D8
:10248000496A0162C269891A42F21072416291423C
:1024900002DDA1EB420105E042F21072D14202DA04
:1024A00052001144416270472DE9F041044606A8EC
:1024B00090E8E0100D48A0660D48E0660D482067E2
:1024C0000D4860670D48A06702C4104629C419462C
:1024D00024F810696761A4F818C0FFF779FA20683A
:1024E000BDE8F0413C21FFF7ABB800000125000832
:1024F0007D24000815250008EF2300081524000896
:10250000FEB508AF443097E870008DE8700000F029
:10251000C7F8FEBD2DE9F0410446006AE061606A3B
:1025200002F038F91C4902F057F81C4902F04AF948
:1025300006461B49A06202F045F9012102F0B5FAF6
:1025400001F0B6FF174A184B01F0CAFD0022174BE5
:1025500001F02AFC01F04EFBE062A16BC4E90D160C
:10256000084601F0A5FFDFF84880124B424601F013
:10257000B7FD07460D46304601F09AFF42460E4B26
:1025800001F0AEFD3A462B4601F066FB01F032FB4E
:10259000E063BDE8F08100000000A544000016449F
:1025A00000002042462C4454FB21094000004E40CC
:1025B0009A9999999999C93F9999E93FFEE72DE927
:1025C000F04704000FD0B4F920006084B4F91E6015
:1025D0002684A281E181511A0DB2E583217829B1C7
:1025E000012925D059E00020BDE8F08760886843C4
:1025F00002B26282B4F91400B4F9041001FB0500C0
:1026000000B2A082618BA183218B6183A91B2183EE
:10261000E3884B431BB2E382B4F90A10884202DC20
:102620004942884200DAA182A08A104418442AE074
:102630006288A91B51436182A78888466F43A7829D
:10264000618BA183218B618302F0A4F8814630461F
:1026500002F0A0F8012102F028FA0646284602F00E
:1026600099F8314602F07AF9494601F04DFF02F03F
:1026700075F801462083E0884843E082228A384486
:1026800002EB0801084400B22082B4F90810884225
:1026900002DC4942884200DA2182B4F91000A3E743
:1026A0002DE9F0410400DDE90606089D984617462D
:1026B0001ED0217002F052F86080304602F04EF8D1
:1026C000A080284602F04AF8E080384602F046F83A
:1026D0002081404602F042F860810020A0836083A0
:1026E00020832082E082A082608260842084E08354
:1026F000BDE8F081012000F0DBFCFBE701F0ACF964
:1027000000F0A0FC054604211D48FFF761F91C4CB0
:10271000DFF870804FF47A77DC26287E10B12068CD
:10272000466302E02168FA2048633846FEF7CAF89B
:10273000287FC0B1687E60B121688A2088634FF429
:1027400048794846FEF7BEF82168872088634846E6
:1027500003E021688B2088636420FEF7B3F8687F6C
:1027600020B1012203E020688663F5E700220421FE
:102770004046FEF7B5F96420FEF7A4F8CDE7000067
:10278000E401002000100140ADF5067D01F064F980
:10279000849000F057FC06464FF40060614C4110F5
:1027A000CDE90041CDE9024000235F4A5F4904A81A
:1027B000FFF77AFE04205E49820203900094CDE97F
:1027C0000121034623A8584A5A498290FFF76CFE1C
:1027D000594820251027CDE90007CDE9020542A878
:1027E0000823514A55498090FFF75EFECDE9004726
:1027F00061A80C234C4A52498346CDE90245FFF7B4
:1028000053FE514F4FF000094E4D0097CDE901594D
:10281000DFF83881DFF838A1DDF878C04C46434650
:102820005246012104A8E0470097CDE90154DDF8A4
:10283000F4C04346524601218298E0474548CDE91D
:1028400000050294DDF870C143465246012180988C
:10285000E0470097CDE901547B9C43465246012155
:102860005846A0470DF1100AD6E90450D6E90147B1
:1028700080463946204601F047FE414602F06EF898
:1028800014902146384602F069F8414602F066F895
:10289000339084F00040394602F060F8414602F07F
:1028A0005DF852903946204602F058F8414602F051
:1028B00055F87190B07F28B185F0004033901495A1
:1028C0007195529000255446C5EB451004EB8000ED
:1028D000C16E88476D1C042DF6D30025C5EB45104D
:1028E00004EB8000016F88476D1C042DF6D3002790
:1028F000C7EB471004EB80052846696F8847286CB2
:1029000010F0FF4F01D1A5F85490AA6FB5F95410FB
:10291000284690477F1C042FEAD3632184A800F047
:10292000CEFBA1E700100140940300202C02002000
:10293000001401407402002000080140BC02002085
:10294000040300206666663F000098410000614570
:102950000000E1450000604110B5502080F311886F
:10296000BFF34F8FBFF36F8F01F07CF818B10449AC
:102970004FF080500860002080F3118810BD0000E7
:1029800004ED00E030B58FB028216846FDF7BCFCAF
:1029900014210AA8FDF7B8FC01210804CDE90010B4
:1029A0000024029402250491CDE907504FF4E01071
:1029B00009906846FEF766FA08B172B6FEE70F2086
:1029C000CDE90A054FF48060CDE90C4002210AA848
:1029D0000E94FEF75BF9002801D072B6FEE70FB047
:1029E00030BD70470148FEF773BE00004C03002065
:1029F0000148FEF76DBE0000AC040020F0B502688F
:102A0000204C214D214E224F224B4FF0804CA042B2
:102A100009D0984207D0604505D0A84203D0B04203
:102A200001D0B84204D122F0700E4A6842EA0E0288
:102A3000A04209D0984207D0604505D0A84203D0F3
:102A4000B04201D0B84203D122F44075CA682A438B
:102A50004D6922F080022A4302608A68C2620A68D5
:102A60008262A04201D0984201D10969016301212B
:102A700041610169C90703D0016921F001010161C8
:102A8000F0BD0000002C01400004004000080040A0
:102A9000000C00400034014010B501F01F0301217B
:102AA000046A99408C430462016A9A4011430162AE
:102AB00010BD10B5846842EA032224F47F440A431F
:102AC0002243826010BD826822F070020A4342F005
:102AD0000701816070470000F0B5036A026A22F0C6
:102AE0000102026242688469124E24F073050C6888
:102AF0002C4323F002058B682B430D4DA84201D0D7
:102B0000B04205D123F00807CB683B4323F0040310
:102B1000A84201D0B04205D14D6922F4407215435C
:102B20008A692A4342608461496841630362F0BD57
:102B3000002C014000340140F0B5026A036A23F022
:102B400010030362436884690D6824F4E64444EA90
:102B500005248D6822F0200242EA05120F4D104E26
:102B6000A84201D0B04206D1CF6822F0800242EAEA
:102B7000071222F04002A84201D0B04207D14D69AD
:102B800023F4406343EA85038D6943EA8503436088
:102B90008461496881630262F0BD0000002C01403D
:102BA00000340140F0B5026A036A23F480730362C3
:102BB0004368C46922F4007224F073050C68124E55
:102BC0002C438D6842EA05220E4DA84201D0B04246
:102BD00006D1CF6822F4006242EA072222F4806222
:102BE000A84201D0B04207D14D6923F4405343EAD3
:102BF00005138D6943EA05134360C4614968C163E5
:102C00000262F0BD002C01400034014030B5046A7E
:102C1000026A22F4805202624268C3690D6823F49A
:102C2000E64343EA05238D6824F4005444EA05345E
:102C3000084DA84202D0084DA84204D14D6922F4A3
:102C4000804242EA85124260C361496801640462BD
:102C500030BD0000002C01400034014010B5036A73
:102C6000046A24F001040462846924F0F00444EA54
:102C7000021423F00A020A438461026210BD10B5F7
:102C8000036A046A24F010040462846923F0A00338
:102C900024F4704444EA023243EA01118261016281
:102CA00010BD10B5406A0021C185C184FEF7F6FE53
:102CB00010BD70B5446A2068406994F84110C0F3B3
:102CC000C0100025212904D118B1E584204600F068
:102CD0008EF82068406994F84210C0F380102229D1
:102CE00004D118B1E585204600F05AF8606C40F038
:102CF000100060642046FEF7D1FE70BD10B501469D
:102D0000406A096809684FF0000289062ED4C2851E
:102D100001680C3151E8003F23F4807341E800342E
:102D2000002CF5D10168143151E8003F23F0010374
:102D300041E80034002CF5D10168143151E8003F1E
:102D400023F0400341E80034002CF5D1202180F825
:102D50004210016B012909D101680C3151E8003F93
:102D600023F0100341E80034002CF5D14263016BDD
:102D7000012902D0FFF778F810BD818DFEF78DFE96
:102D800010BD10B5406A01214163016B012902D0D9
:102D9000FFF780F810BD818D4908FEF77EFE10BD5B
:102DA00001680C3151E8002F22F4907241E80023B1
:102DB000002BF5D10168143151E8002F22F00102F7
:102DC00041E80023002BF5D1016B012909D10168ED
:102DD0000C3151E8002F22F0100241E80023002BB3
:102DE000F5D1202180F8421000210163704701686D
:102DF0000C3151E8002F22F0C00241E80023002BE3
:102E0000F5D1202180F84110704708B590F84210A4
:102E1000222901D0022008BD82684FF480539A42D3
:102E200001D1016921B1816A9A421BD04AB10AE0FD
:102E30000268816A5268C2F308020A80816A891CAA
:102E400008E0026972B10268526802F07F020A70FB
:102E5000816A491C8162C18D491E0904090CC18522
:102E600003D01BE002685268F1E70168CA6822F0EB
:102E70002002CA600168CA6822F48072CA600168D0
:102E80004A6922F001024A61202180F842100021A3
:102E90004163026B012A03D0FEF7E6FF002008BD64
:102EA000016301680C3151E8002F22F0100241E863
:102EB0000023002BF5D101680A68D20602D50A6802
:102EC00049680091818DFEF7E8FDE7E770B504469B
:102ED00000680169E26821F44051114301612169F0
:102EE000A0680843616908432168CA6841F20C631D
:102EF0009A430243CA6020684169A26921F4407183
:102F0000114341611E492068884202D1FDF784FFC8
:102F100001E0FDF771FF00EBC00101EB00126068FA
:102F200064218000B2FBF0F3B3FBF1F36FF01806FD
:102F30007343B2FBF0F5B2FBF0F605EB83053223E9
:102F400003EB0515B5FBF1F5B6FBF1F605F0F00561
:102F500005EB0615B2FBF0F6B2FBF0F0B0FBF1F0BA
:102F60006FF01802504306EB800003EB0010B0FB3B
:102F7000F1F0216800F00F002844886070BD000067
:102F80000038014038B5816204468285002013462E
:102F90006064222284F84220E56B1B4AAA62E56B3A
:102FA0001A4AEA62E56B1A4A2A63E26B50630A46E0
:102FB0002168E06B091DFDF74DFC20680168406841
:102FC0000090206948B120680C3050E8001F41F49F
:102FD000807140E80012002AF5D12068143050E8D2
:102FE000001F41F0010140E80012002AF5D12068DD
:102FF000143050E8001F41F0400140E80012002A60
:10300000F5D1002038BD0000FD2C0008832D0008FC
:10301000B32C00080148FEF743BD0000DC0300208C
:10302000FEE70907090E002804DB00F1E02080F824
:103030000014704700F00F0000F1E02080F8141D2C
:103040007047000000487047E4110020FDF75CFD68
:10305000FFF798FCFEF76AFFFEF720FFFFF70CF979
:10306000FFF72CF9FFF732F8FFF764F8FFF798F84D
:10307000FFF7CCF8FFF79EF9FEF7BEFF0B220749DA
:103080000748FEF7E3FEFEF727FF00F01FF84FF4B6
:103090007A742046FDF716FCFBE700008400002050
:1030A000DC03002001460020842900D0C81C7047A2
:1030B00010B500B9012000F04BFB002010BD10B589
:1030C00001B9012100F06AFB002010BD10B500F02D
:1030D000ABFB002010BD7FB50D4604464169B0F939
:1030E000080081B1A16971B1FFF7DCFFD4E90512D5
:1030F0008DE80700D4E900102B46226900F081FC1E
:10310000039004B070BDFFF7CDFF03A9CDE9000126
:10311000208A2B4682B2D4E9001000F045FC012839
:1031200001D00020EDE70398EBE700002DE9F04126
:10313000184C0F460546E6682068001D00F040FA6E
:1031400038B9206890F82C1001208840216981430B
:103150002161681C07D137B12168BDE8F0410E48F4
:10316000091D00F071BA20683544B54245602168F8
:1031700005D2A06BBDE8F041091D00F04DBA606BAF
:10318000091D00F049FAA06A854200D2A562BDE897
:10319000F08100001C000020D00500202DE9F04146
:1031A000054600F05DFA2E4CA068401CA060206827
:1031B0002C4F10B1606940B32DE02560A068012854
:1031C00029D1002606EB860007EB800000F016FAF6
:1031D000761C072EF6D323488C3000F00FFA2148D6
:1031E000A03000F00BFA1F48B43000F007FA1D4879
:1031F000C83000F003FA1B48DC3000F0FFF9194832
:103200008C3060631430A06305E02068E96AC06A0E
:10321000884200D82560606A401C6062E96A01202B
:10322000226988401043206101EB810007EB800098
:10323000291D00F009FA00F033FA606900280CD06B
:103240002068E96AC06A884207D207494FF0805077
:103250000860BFF34F8FBFF36F8FBDE8F0810000B0
:103260001C000020F404002004ED00E010B504462A
:1032700090F8510058B101280CD002280FD05020EE
:1032800080F31188BFF34F8FBFF36F8FFEE7206B82
:1032900000F01AFA2046BDE8104000F015BA10BD43
:1032A00010484FF44061420706D0C01D0D4920F080
:1032B0000700411AC1F540610B4A00230144C2E9ED
:1032C00000030839183A21F0070111604B600B60C8
:1032D0000B1AC0E9001393604FF000405360506137
:1032E00070470000E405002070000020144E154CCB
:1032F000A6F1C8074FF08058DFF84C9012E000BFED
:1033000000F0AEF9F068C568281D00F059F9A06812
:10331000401EA0606068401E606000F0C1F9284651
:10332000FFF7A4FF60680028EAD138680128F9D9BE
:10333000C9F80080BFF34F8FBFF36F8FF2E7000033
:10334000BC0500201C00002004ED00E02DE9F04742
:103350009A46DDE9098481466FF00303206B03EB95
:1033600082021044089E20F00707780707D05020FB
:1033700080F31188BFF34F8FBFF36F8FFEE70025F7
:1033800061B1002023180A5C83F834200A5C12B172
:10339000401C1028F6D384F8435001E084F83450E0
:1033A000072E00D30626E662C4E91165201D00F051
:1033B00030F904F1180000F02CF92461C6F107007F
:1033C0006462A061E56484F850505246494638462C
:1033D00000F0C0F82060B8F1000F01D0C8F800403C
:1033E000BDE8F08730B5114900E011460A68824215
:1033F000FBD34B685C18844203D140681844486092
:10340000084643681C18944209D1084C183C2468AB
:10341000A24209D052681A4442600A6812680260E7
:10342000814200D0086030BD0460F9E770000020E0
:103430000648416B096829B1416BC968C968496888
:10344000816270474FF0FF31FAE700001C00002056
:1034500008484068401C4FF0500080F3118804D0A9
:10346000BFF34F8FBFF36F8FFEE7BFF34F8FBFF3F5
:103470006F8FFEE7780000202DE9F0410546002718
:1034800000F008FA324E306808B9FFF709FF70699A
:1034900005424ED1C5B3083568070ED005F00700C8
:1034A000C0F108000544680707D0502080F3118858
:1034B000BFF34F8FBFF36F8FFEE72DB37068854268
:1034C00037D82348183001460C6801E020460C46E6
:1034D0006168A94202D221680029F7D131688C4283
:1034E00027D007682168016060680837411B1029F0
:1034F0000FD96019420708D0502080F31188BFF31C
:103500004F8FBFF36F8FFEE713E041606560FFF7F9
:1035100069FF61687068401A7060B268904200D2BA
:10352000B060706901430020C4E90001F068401CEC
:10353000F06000F0FDFA780707D0502080F3118882
:10354000BFF34F8FBFF36F8FFEE73846BDE8F081C2
:103550005800002010B5031F4FF080741C601B1F23
:1035600021F001011960191F024B0B60143940381A
:103570000A6010BD51340008417ACA090F490A7621
:10358000427AC2F380124A76427AC2F340128A76B5
:10359000427AC2F30012CA76427AC2F3C0020A77B4
:1035A000427AC2F380024A77427AC2F340028A77B3
:1035B000407A00F00100C87700207047E411002035
:1035C000D0E9013201699A60D0E901235A604A6862
:1035D000824201D182684A60002202610868401E6E
:1035E0000860086870470000034B036003F1540053
:1035F00008604020106070479000002000F1080132
:103600004FF0FF32C0E90112C16001610021016089
:10361000704700210161704730B50B685A1C02D019
:1036200000F1080202E0026904E0224654682568BD
:103630009D42FAD953684B6099608A605160086175
:103640000168491C016030BD42684A6093688B6024
:1036500093685960916008610168491C0160704776
:10366000502080F31188BFF34F8FBFF36F8F0A494B
:103670004868401C486001280CD10848006810F0D8
:10368000FF0F07D0502080F31188BFF34F8FBFF397
:103690006F8FFEE7704700007800002004ED00E027
:1036A0000849486828B1401E486001D180F311885C
:1036B0007047502080F31188BFF34F8FBFF36F8F97
:1036C000FEE700007800002070B500282AD0164DD3
:1036D000A0F1080460686969084207D1502080F3AE
:1036E0001188BFF34F8FBFF36F8FFEE722683AB1A7
:1036F000502080F31188BFF34F8FBFF36F8FFEE729
:103700008843606000F0C6F86068696808446860D3
:103710002046FFF767FE2869401C2861BDE870401D
:1037200000F006BA70BD0000580000204FF0E02005
:1037300000210161816105494FF47A720968B1FB8A
:10374000F2F1491E41610721016170471800002014
:1037500010B5020014D00F48006B38B1502080F330
:103760001188BFF34F8FBFF36F8FFEE700F092F821
:1037700000211046FFF7DAFC00F0DAF9002807D143
:1037800005494FF080500860BFF34F8FBFF36F8F34
:1037900010BD00001C00002004ED00E070B50D46D7
:1037A00004000BD095B11E4A106BB8B1502080F3C5
:1037B0001188BFF34F8FBFF36F8FFEE7502080F368
:1037C0001188BFF34F8FBFF36F8FFEE7502080F358
:1037D0001188BFF34F8FBFF36F8FFEE700F05AF8E9
:1037E000D26823685919934204D98B420AD991426D
:1037F00002D807E08B42FAD9881A21600021FFF72E
:1038000095FC00E0216000F093F9002807D10549FC
:103810004FF080500860BFF34F8FBFF36F8F70BDC4
:103820001C00002004ED00E010B586B000240394D5
:1038300005AA04A903A80494FFF7D6FEDDE9030155
:103840000094CDE9011000230EA11048059A00F064
:10385000D8F80F490028C86211D0502080F3118891
:10386000BFF34F8FBFF36F8F4FF0FF30886201209F
:103870004861CC6006B0BDE8104000F041B806B029
:1038800010BD000049444C4500000000ED32000826
:103890001C0000200248016B491C016370470000B6
:1038A0001C0000201448016B11B10121C161704757
:1038B0000021C1610169B1FA81F1C1F11F0101EB80
:1038C00081020E4951F822306BB101EB820101F106
:1038D00008034A6852684A609A4201D152684A60B5
:1038E000D16801607047502080F31188BFF34F8F7B
:1038F000BFF36F8FFEE700001C000020F4040020DF
:103900001CB5264908780190FF20087008788DF8CA
:1039100000009DF800009DF8002000F0F0009042AB
:1039200007D0502080F31188BFF34F8FBFF36F8F04
:10393000FEE79DF800001A4C00F0500020700720B0
:10394000A06005E09DF8002052008DF80020401E88
:103950009DF800201206F5D4A060032807D050205F
:1039600080F31188BFF34F8FBFF36F8FFEE74FF4E3
:103970004070A060019808700A48016841F4700125
:103980000160016841F070410160FFF7CFFE002047
:103990006060FCF72DFC00201CBD000000E400E08E
:1039A0007800002020ED00E02DE9FF5F8346DDE98F
:1039B0000E87994616468A469000FFF75DFD050082
:1039C0001CD05420FFF758FD040014D000202563BC
:1039D00084F85100CDE90240CDE900874B463246DC
:1039E00051465846FFF7B2FC2046FFF7D7FB0120AF
:1039F00004B0BDE8F09F2846FFF766FE4FF0FF30A9
:103A0000F6E7F0B585B0DDE90B640A9DA6B1DCB13F
:103A1000542700972663022684F85160002604AFDD
:103A2000CDE90246CDE90057FFF790FC2046FFF7AD
:103A3000B5FB049805B0F0BD502080F31188BFF3AA
:103A40004F8FBFF36F8FFEE7502080F31188BFF3D5
:103A50004F8FBFF36F8FFEE70148C06870470000CB
:103A60001C0000202DE9F0412F4C0026206B28B1CE
:103A7000A069401CA0613046BDE8F081E5686D1C7E
:103A8000E56013D1606B006838B1502080F3118875
:103A9000BFF34F8FBFF36F8FFEE7606BA16B616366
:103AA000A063206A401C2062FFF7C2FCA06ADFF816
:103AB0007C80854209D3606B0068A0B1606BC068F0
:103AC000C7687868854211D2A0622068C06A00EB9E
:103AD000800158F82100012800D90126E06900285A
:103AE000C9D00126C7E74FF0FF30EDE7381DFFF7DB
:103AF00067FDB86A18B107F11800FFF761FDF96AB0
:103B00000120226988401043206101EB810108EB0C
:103B10008100391DFFF798FDF86A2168C96A88425B
:103B2000C9D30126C7E700001C000020F4040020D0
:103B30002DE9F0472C4D00242746286B38B1FFF7BC
:103B40008FFD286B401E2863286B40B146E0502053
:103B500080F31188BFF34F8FBFF36F8FFEE7A96823
:103B6000224E0120D1B3A6F1B40980463068E8B1F5
:103B7000F068C46804F11800FFF722FD201DFFF76C
:103B80001FFDE06A2A6908FA00F11143296100EB80
:103B9000800109EB8100211DFFF756FDE06A2968CD
:103BA000C96A8842E2D3C5F81C80DFE70CB1FFF791
:103BB0003FFCAC6944B14646FFF754FF00B1EE61EB
:103BC000641EF9D10020A861E86938B108490127CD
:103BD00038070860BFF34F8FBFF36F8FFFF760FDAB
:103BE0003846BDE8F08700001C000020A805002032
:103BF00004ED00E021F00042A2F16052B2F5801F16
:103C000001F0004328BFD2F17F6C0BD95FEA001CA2
:103C100043EAC20242EB507018BF704728BF20F041
:103C200001007047B2F5801FBCBF184670474FEACD
:103C3000410C1CF5001F02D2084600F08ABE70B588
:103C400000F0F8FA00000089FFF7F6BF4FF00040DF
:103C5000A0F580007047000010B591EA030F48BF3F
:103C600083F0004300F14283841A71EB030C05D208
:103C7000121943EB0C03001B61EB0C01DFF824E18C
:103C80004FEA1154A4EB135C1EEA430F18BF9EEADF
:103C9000445F73D023EA0E03DCF1200E21EA0451C5
:103CA00043F4801332D322FA0CFE10EB0E0023FAF9
:103CB0000CFE41EB0E01CCF1200E03FA0EFE10EBD0
:103CC0000E0051F10001B1F5801FCCF1200E32D26F
:103CD00001EB045112FA0EF2BDE8104058BF7047D4
:103CE000401C38BF5FEA420218BF7047002814BF6B
:103CF00020F0010041F100014FEA410313F5001FDC
:103D000038BF7047A1F1C04100F0E2BA012A43EB8D
:103D10000302ACF1200CDCF11F0E32BF4FF0000E9D
:103D200023FA0CF310EB030041EB0451B4EB115FE9
:103D3000D0D0A1EB045101F5801149085FEA3000B1
:103D400001EB04510ED350F1000038BF12FA0EFE01
:103D500008D1BDE81040C9E7401C38BF5FEA420205
:103D6000CAD1C3E7BDE810404FEA410313F5001F75
:103D700038BF7047A1F1C04100F0AABA9EEA445F83
:103D800008D011EA5E0FBDE8104004BF01F0004109
:103D900000207047BDE8104070B500F04BFA00BF3E
:103DA00064FBBE3E0000E0FF2DE9C04130B4DFF807
:103DB000A0C23CEA111418BF3CEA131400F0EC80D6
:103DC00081EA03051CEA111444EAD57418BF1CEA01
:103DD000131500F0C780A4EB05044FF0004545EA39
:103DE000C12145EAC32341EA505143EA525304F149
:103DF0007F74994204F500344FEAC0204FEAC22292
:103E000008BF904200F09C804FEA13650FF2401605
:103E1000765D4FEA134506FB05F7C7F1807706FB91
:103E200007F74FEAD737A7FB03687642C8F5803813
:103E3000A7FB06CE38BFA8F1010807FB08E64FF044
:103E4000000EA6FB028CE6FB03CEDCF1000CCEF1EB
:103E5000004E38BFAEF1010EA6FB0C584FF0000724
:103E60004FF00005E6FB0E87A1FB08C6A0FB07CEBE
:103E700016EB0E0645F10005E1FB076515F1E04E76
:103E80007EBFA4F580345FEA46066D4116F18007D7
:103E900045F100054FEA17274FEA066647EA05672E
:103EA000A6F1DE46B6F1805F4FEA15251FD93846E8
:103EB00024F0010C05EBC471BCF1FE6F01EB0C1199
:103EC00002D8F0BCBDE8008124425CBF01F5801E31
:103ED0009EEAC47F02D4F0BCBDE80081244238D4FD
:103EE000F0BCA1F1C041BDE8004100F0F1B94FEADA
:103EF000D22242EA43524FEAD323A7FB02864FEA7B
:103F0000D02040EA415007FB03661EEA0E0F4FEA3D
:103F1000D12105FB026658BFA6EB0056B6EB005652
:103F20004FEA520E4EEAC37E18EB0E0E56EB530EBE
:103F3000BDD518EB02085E417F1C55F10005B6E7C0
:103F40004FF480154FF000074FF000064FF00008C7
:103F5000ADE7F0BC4FF0000001F1C04101F00041BD
:103F6000BDE8008111EA0C1F0CEA131500D00CE02B
:103F700013EA0C1F00F025804FF00000F0BC81EA2E
:103F8000030101F00041BDE80081F0BCBDE8004143
:103F900081EA030100F09CB9F0BCBDE8004170B5B6
:103FA00000F048F9097EFC3E00F007B881EA030101
:103FB0004FF0000001F00041704781EA030100F07A
:103FC00087B9F0BCBDE800414FF0000021497047BF
:103FD000FFFDFBF9F7F5F4F2F0EEEDEBE9E8E6E4CE
:103FE000E3E1E0DEDDDBDAD8D7D5D4D3D1D0CFCD55
:103FF000CCCBCAC8C7C6C5C4C2C1C0BFBEBDBCBB8E
:10400000BAB9B8B7B6B5B4B3B2B1B0AFAEADACAB88
:10401000AAA9A8A8A7A6A5A4A3A3A2A1A09F9F9E62
:104020009D9C9C9B9A999998979796959594939314
:10403000929191908F8F8E8E8D8C8C8B8B8A8989AB
:10404000888887878685858484838382828181802E
:104050000000FF070000F87F4FEA1153A3F58063CB
:10406000D3F11E03A8BFD3F1200C08DB4FF00042B0
:1040700042EAC12252EA505232FA03F07047094232
:104080000BD4102BC4BF0020704703F5787CBCF123
:10409000FF3F05D04FF0FF3070474FF000007047F2
:1040A00070B500F0C7F800BF499224800020704727
:1040B000F0E710F0004248BF4042B0FA80F310FA37
:1040C00003F10AD0C3F11D0303F580634FEA4150A9
:1040D00002EB035202EBD12170474FF00000704712
:1040E000DFF848C170B51CEA111E1EBF1CEA13158B
:1040F0009EEA0C0F95EA0C0F00F06F8081EA030432
:1041000023EA4C134EEAD47E21EA4C1141F480118B
:1041100043F48013AE44A1FB024CA0FB0365AEF157
:104120007F7E361955EB0C05A1FB034C4CF10003C7
:10413000A0FB021C16EB0C06654153F1000309427B
:1041400018BF46F0010613F4007F0BD14FEA03318C
:104150004FEA0530340341EA155140EA16506FF03A
:1041600003020AE04FEAC3214FEAC520F40241EA04
:10417000555140EA56506FF0020202EB2E4201EB1D
:10418000025585EACE710AD05FEA440C18BF24F0CC
:10419000004450F1000041F1000120EAD47040F2E7
:1041A000FE7C624500D270BDA84214BF4FF080442F
:1041B0004FF04044002E08BF0024BEF1806FA8BF1E
:1041C000A1F1C041BDE8704080F282804FF0000054
:1041D00001F1C04101F0004170479EEA0C0F0CEA6A
:1041E000131518BF95EA0C0F06D04FF0000081EAB6
:1041F000030E0EF0004170BD00F01CF88900013E76
:1042000000F007B800F009B84FEA430C5FEA5C5CC5
:1042100008D081EA030100F05BB84FEA410C5FEA85
:104220005C5CF6D14FF00000014970470000FF07C9
:104230000000F87F0EF1020E2EF0030E5EF8046B04
:10424000364205D4012A43EB030515F5001F12D8A9
:10425000012841EB010C1CF5001F0CD80ED14FEAD0
:10426000D17C15F5001F0CEB4C0C0CF1020C08BFB7
:104270004CEBD37C04E04FF0080C01E04FEAD37C18
:104280000CEB4C0526FA05F606F00706B6F1040C11
:1042900006D20EEB860CBDE870404CF0010C604776
:1042A000DFE80CF0090B02024FF000414FF0000074
:1042B000A1F5002170BD19461046012851EB0104FB
:1042C00018BFD4F5001484BF002001F0004170BD78
:1042D0000808A0F500114FEA3101704710B591EAC6
:1042E000030F48BF83F000433FF5BEAC841A71EB67
:1042F000030C07D212198CF0004C43EB0C03001B8B
:1043000061EB0C01DFF8A4E14FEA1154A4EB135C5C
:104310001EEA430F18BF9EEA445F00F0B08023EA14
:104320006E03524221EA0451C3EB6E0338BF5B1E99
:10433000DCF1200E25D322FA0CFE10EB0E0043FA1E
:104340000CFE41EB0E01CCF1200E03FA0EFE10EB39
:104350000E0051F10001CCF1200E29D412FA0EF218
:1043600001EB0451BDE8104058BF7047401C1CBF12
:10437000B2F1004F704700280CBF491C20F001002B
:10438000704712EB020E43EB030218BF4FF0010E11
:104390004EEA4202ACF1200CDCF11E0E54D943FA75
:1043A0000CFE10EB0E0051F1FF31CCF11E0ED5D5F5
:1043B0000EF1010E12FA0EFE404141EB010101EB3C
:1043C000445C5FEA5C5C10D910EBDE7001EB0451D9
:1043D00038BFBEF1004FBDE8104018BF704700283D
:1043E0000CBF491C20F00100704730D24FEAD42C9A
:1043F00011F5001124F400641BD0B1FA81F20B3ADC
:10440000A41AA41ED2F12003914030FA03F31943F9
:10441000904001EBCC71002C01EB0451BDE8104041
:10442000A8BF704701F1C0414FF0000001F000410A
:104430007047B0FA80F310FA03F100D110BDE41A0E
:10444000173C4805C90AE4E701EB045110BD4910C7
:1044500001EB0451BDE810404FEA300002E04FF09C
:10446000000170474A0008BF0042F8D0B2F5001FB3
:1044700028BF704701F000414FF0000070479EEAEE
:10448000445F07D011EA5E0FBDE8104004BF002171
:1044900000207047BDE8104070B5FFF7CBFE00BFAD
:1044A00040DFF63E83F00041104670470000E0FF19
:1044B00043004FEAD30C4FEA3C0C43401FBF400778
:1044C0000CF1605113F0FE4F70471CF0006F03D1E8
:1044D00000200CF0004170470CF0004343EA50709C
:1044E00010B540EACC0000F0EEF900BF00000092E9
:1044F0004FEA0001FFF7ECBE4FF000414FF0000023
:10450000A1F500217047000090EA010F48BF81F03B
:10451000004100F12A82421A3CBF801A89184FEAF2
:10452000D0524FF07F4C1CEA410FA2EBD15318BF81
:104530009CEA026F00F03B804FF0004C4CEA0020F8
:104540004CEA012121FA03FC10EB0C0C1ED202F103
:10455000FF325FEA1C2040EBC25038BF70471CF0AE
:104560007F0F4FEA400C18BFBCF17F4F38BF704738
:10457000C3F12003994008BF20F00100BCF17F4F38
:1045800038BF7047A0F1C04000F0E3B94FEA3C00EB
:10459000000A40EBC25028BF1CF0FF0F4FEA400C4E
:1045A000E6D018BFBCF17F4F38BF7047EAE79CEAFE
:1045B000026F05D010EA5C0F08BF00F000407047A2
:1045C00010B500F080F900BF64FBBE3E014800F06A
:1045D0003ABA00BF0000C07F4FF47F0C1CEAD01233
:1045E0001EBF1CEAD11392EA0C0F93EA0C0F00F0E5
:1045F000858090EA010F48BF42F4807240F4000CBD
:1046000041F400002CF07F4120F07F4000B5814252
:10461000A2EB03020FF2081CACEB504EC0F10000FD
:104620009EF800E04FEA4E0E00FB0EFC38BF49003A
:104630004FEA2C1C02F5FA020CFB0EF34FEACE1ED9
:104640004FEA112C4FEAC1210EEB635E42EB22428E
:104650000EFB0CFC4FEA1C5300FB03114FEA112C1C
:104660004FEA01310EFB0CFC4FEADC4C00FB0C1155
:10467000C14228BF09184CEB03335DF804EB10EB83
:10468000410143EBC250B2F57C0F38BF704729D5CA
:1046900012F0F00F1CBF00F1C04000F00040704766
:1046A000008182838485868788898B8C8D8E8F910B
:1046B0009293959697999A9C9D9FA0A2A3A5A7A82F
:1046C000AAACAEB0B2B3B5B7B9BCBEC0C2C5C7C95B
:1046D000CCCED1D4D7D9DCDFE2E6E9ECF0F3F7FABF
:1046E000FE0000004FEA400C0CF1807CBCF17E4FD4
:1046F00028BF7047B0F1C04000F02BB990EA010F1D
:104700000CEAD11348BF42F48072624538BF63455A
:1047100007D213F47F0F16D080EA010000F00040AA
:10472000704710B500F0CFF8097EFC3E00F005B8E8
:1047300080EA010000F00040704780EA010000F0CC
:10474000004000F006B912F47F0F04BF0248704722
:1047500080EA010000F0FDB80000C07F41000B0EB0
:10476000D3F19E0208D950F400034FEA032323FA41
:1047700002F048BF4042704710B500F0A4F800BFF7
:1047800049922480002070476FF0004282EA2000A6
:104790007047000010F0004148BF4042B0FA80F37B
:1047A00010FA03F2C3F19D030BD051EAC35101EBA0
:1047B0001220530638BF704700F1010008BF20F0F7
:1047C000010070474FF47F0C1CEAD0121EBF1CEA98
:1047D000D11392EA0C0F93EA0C0F00F0478090EA95
:1047E000010F48BF42F480724FF0004C4CEA0020A9
:1047F0004CEA012102EB0302A0FB0113A2F5000227
:10480000002918BF43F001035B0028BF4FEA3303C0
:1048100042EB22425FEA132C4CEBC2502EBFBCEBA2
:10482000436FB2F57C0F70474FEA036CBCF1004F49
:1048300008BF20F00100B2F57C0F38BF70470BD5E0
:1048400082F0FF0212F5803FC8BF704700F1C04000
:10485000D8BF00F00040704700F5000C5FEA4C0C38
:1048600048BF7047B0F1C04000F073B890EA010F44
:104870000CEAD11348BF42F48072624538BF6345E9
:1048800004D280EA010000F00040704710B500F04B
:104890001AF800BF8900013E00F007B800F009B81F
:1048A0005FEA410C5FEA1C6C08D080EA010000F06E
:1048B00050B85FEA400C5FEA1C6CF6D14FF0004044
:1048C000A0F5800070470EF1020E2EF0030E5EF888
:1048D000044B244204D44FEA4102B2F17F4F11D875
:1048E0004FEA4003B3F17F4F0CD80ED14FEAD07C92
:1048F000B2F17F4F0CEB4C0C0CF1020C08BF4CEBEF
:10490000D17C04E04FF0080C01E04FEAD17C0CEBC5
:104910004C0324FA03F404F00704B4F1040C06D2A7
:104920000EEB840CBDE810404CF0010C6047DFE852
:104930000CF0070802024FF00040A0F5800010BD07
:104940000846420018BFD2F1807288BF00F00040D4
:1049500010BDFF2141EAD050C005704790EA010F19
:1049600048BF81F000413FF5D6AD421A04D882F02D
:104970000042A0EB020011444FEAD0524FF07F4CAE
:104980001CEA410FA2EBD15318BF9CEA026F4AD038
:104990004FF0004C4CEA00204CEA012121FA03FCC4
:1049A000B0EB0C0C0FD412F0FE0F36D05FEA4C00C7
:1049B0001DD5001240EBC25038BF70471CF03F0FAE
:1049C00018BF70470BE0A2F101025FEA1C2040EB28
:1049D000C25038BF70471CF07F0F18BF7047C3F13B
:1049E0002003994014BF401E20F00100704780084A
:1049F0004FEA122308BF7047B0FA80FCA2EB0C020A
:104A0000CCF1280C60FA0CF093EA122F04BF00EBF3
:104A1000C25070474FEAC3707047130A5FEADC1058
:104A200008BF7047F6E79CEA026F04D010EA5C0FFB
:104A300008BF0020704710B5FFF745FF40DFF63E86
:104A400081F0004070470CF00F03092B08BF0820CD
:104A500000F051800A2B0BD0082B18BF704708BFFD
:104A60001CF0400F0AD04FF000004FF000017047DB
:104A70001CF0400F18BF4FF0004070471CF0100FA3
:104A800008D020F0704300F07F4242EAD3014FEAA1
:104A90004370704700F0604021F07F4242EA00021C
:104AA00001F07F4040EA727070474FF0FF0212EA57
:104AB000D0521CBF92F0FF038B42C2BFD14200EB29
:104AC000C1507047002A0AD0002B0BD0002900F0FB
:104AD0000040A4BF40F0FE4040F40000704700F0EA
:104AE0000040704743024FF00B0C18BF4CF0806C35
:104AF0007FF46CAD70471CF4801F11D01CF4E02FC4
:104B000003D06FEACC31490070474FF04050EFF3CB
:104B1000008222F0704242EA000282F3008870476D
:104B20004FF0000070470000C04B0008F526000859
:104B3000FDFF000000000000400000000000000039
:104B400000000000A84B00088927000800000000B2
:104B500000000000800000000000000000000000D5
:104B6000B44B0008FD260008000000000000000013
:104B700080000000000000000000000001020203AD
:104B80000405060708090A0B0C0D0E0F1010000093
:104B900000000000000001020304060708090000ED
:104BA00000000102030400006D6F746F72546173A2
:104BB0006B0000005365766F725461736B000000E8
:104BC00064656661756C745461736B00EC4B00082E
:104BD00000000020840000006C010008704C0008F8
:104BE00084000020E4170000880100080000000095
:104BF00000000000000000000100000010000000A4
:104C00000000000000127A00000000000000000018
:104C10000000000000000000000000000000000094
:104C20000000000000000000000000000000000084
:104C30000000000000000000000000000000000074
:104C40000000000000000000000000000000000064
:104C50000000000000000000000000000000000054
:104C60000000000000000000AAAAAAAA000000009C
:0400000508000131BD
:00000001FF
